:100000000C942A000C94ED000C9414010C943B0108
:100010000C9447000C9447000C9447000C94470044
:100020000C9447000C9447000C9447000C94470034
:100030000C9447000C9447000C9447000C94470024
:100040000C9447000C9447000C9447000C94470014
:100050000C94470011241FBECFE5D8E0DEBFCDBF12
:1000600010E0A0E6B0E0E8EBF3E002C005900D92EE
:10007000A036B107D9F720E0A0E6B0E001C01D929C
:10008000A736B207E1F70E9462010C94DA010C94E2
:100090000000683008F06FC04130A1F5813089F070
:1000A00028F08230C9F0833011F108952AB381E03D
:1000B00090E002C0880F991F6A95E2F7822B8ABBF5
:1000C000089527B381E090E002C0880F991F6A95D8
:1000D000E2F7822B87BB089524B381E090E002C051
:1000E000880F991F6A95E2F7822B84BB089521B38C
:1000F00081E090E002C0880F991F6A95E2F7822B99
:1001000081BB0895411137C0813091F028F08230D1
:10011000D9F0833029F108952AB381E090E002C03C
:10012000880F991F6A95E2F7809582238ABB08950C
:1001300027B381E090E002C0880F991F6A95E2F72B
:100140008095822387BB089524B381E090E002C0AC
:10015000880F991F6A95E2F78095822384BB0895E2
:1001600021B381E090E002C0880F991F6A95E2F701
:100170008095822381BB0895813081F028F0823000
:10018000B9F08330F9F027C089B390E002C09595AB
:1001900087956A95E2F7982F91701DC086B390E01D
:1001A00002C0959587956A95E2F7982F917013C0D4
:1001B00083B390E002C0959587956A95E2F7982FF2
:1001C000917009C080B390E002C0959587956A95BB
:1001D000E2F7982F9170892F08951F920F920FB612
:1001E0000F9211242F933F934F935F936F937F93BD
:1001F0008F939F93AF93BF93EF93FF93E091600032
:10020000F09161000995FF91EF91BF91AF919F919E
:100210008F917F916F915F914F913F912F910F90AF
:100220000FBE0F901F9018951F920F920FB60F924E
:1002300011242F933F934F935F936F937F938F93EB
:100240009F93AF93BF93EF93FF93E0916200F09180
:1002500063000995FF91EF91BF91AF919F918F91AD
:100260007F916F915F914F913F912F910F900FBEB2
:100270000F901F9018951F920F920FB60F92112496
:100280002F933F934F935F936F937F938F939F939E
:10029000AF93BF93EF93FF93E0916400F0916500FB
:1002A0000995FF91EF91BF91AF919F918F917F91B0
:1002B0006F915F914F913F912F910F900FBE0F90D3
:1002C0001F9018950E947E0160E083E00E94B201B9
:1002D00060E083E00E94B601813019F40E94AE0113
:1002E00003C080E00E94AE012FE788E391E0215037
:1002F00080409040E1F700C00000EACF8DB18F77D9
:100300008DB98DB180628DB98DB180618DB98DB19E
:10031000877F8DB98DB18B7F8DB98DB181608DB99E
:100320008DB18D7F8DB98EB18E7F8EB941E065E044
:1003300081E00E94490041E067E081E00E944900BD
:1003400041E064E081E00E94490040E066E081E035
:100350000E9449008DB180648DB908958FB9779B53
:10036000FECF089540E00E9449000895CF93DF93A7
:10037000C82FD62F0E94BC008130B9F48FE59AEEC9
:100380000197F1F700C000006D2F8C2F0E94BC0078
:10039000813059F4909166008927809366006D2F13
:1003A0008C2F0E94BC008130D1F380916600DF91D8
:0803B000CF910895F894FFCFEE
:00000001FF
