:100000000C942A000C9463010C948A010C94B101A5
:100010000C9447000C9447000C9447000C94470044
:100020000C9447000C9447000C9447000C94470034
:100030000C9447000C9447000C9447000C94470024
:100040000C9447000C9447000C9447000C94470014
:100050000C94470011241FBECFE5D8E0DEBFCDBF12
:1000600010E0A0E6B0E0E6E5FDE002C005900D92EC
:10007000A439B107D9F720E0A4E9B0E001C01D928E
:10008000A03AB207E1F70E9413030C94A9060C945E
:10009000000087B1806487B987B18F7787B987B14E
:1000A0008F7D87B986B1816086B986B1826086B955
:1000B00086B18B7F86B986B18F7786B986B1877F07
:1000C00086B986B1806186B986B1806886B908959F
:1000D00097B1907E97B997B1892B87B9089586B16A
:1000E000806486B908950E946F00349BFECF86B16C
:1000F000806186B984B195B10895683008F06FC009
:100100004130A1F5813089F028F08230C9F0833088
:1001100011F108952AB381E090E002C0880F991F81
:100120006A95E2F7822B8ABB089527B381E090E0BD
:1001300002C0880F991F6A95E2F7822B87BB08954A
:1001400024B381E090E002C0880F991F6A95E2F71E
:10015000822B84BB089521B381E090E002C0880F18
:10016000991F6A95E2F7822B81BB0895411137C030
:10017000813091F028F08230D9F0833029F1089550
:100180002AB381E090E002C0880F991F6A95E2F7D8
:10019000809582238ABB089527B381E090E002C056
:1001A000880F991F6A95E2F78095822387BB08958F
:1001B00024B381E090E002C0880F991F6A95E2F7AE
:1001C0008095822384BB089521B381E090E002C032
:1001D000880F991F6A95E2F78095822381BB089565
:1001E000683008F06FC04130A1F5813089F028F007
:1001F0008230C9F0833011F108952BB381E090E093
:1002000002C0880F991F6A95E2F7822B8BBB089575
:1002100028B381E090E002C0880F991F6A95E2F749
:10022000822B88BB089525B381E090E002C0880F3F
:10023000991F6A95E2F7822B85BB089522B381E06E
:1002400090E002C0880F991F6A95E2F7822B82BB6B
:100250000895411137C0813091F028F08230D9F0F3
:10026000833029F108952BB381E090E002C0880F1C
:10027000991F6A95E2F7809582238BBB089528B376
:1002800081E090E002C0880F991F6A95E2F780959F
:10029000822388BB089525B381E090E002C0880FD7
:1002A000991F6A95E2F78095822385BB089522B352
:1002B00081E090E002C0880F991F6A95E2F780956F
:1002C000822382BB08951F920F920FB60F921124C2
:1002D0002F933F934F935F936F937F938F939F934E
:1002E000AF93BF93EF93FF93E0919400F09195004B
:1002F0000995FF91EF91BF91AF919F918F917F9160
:100300006F915F914F913F912F910F900FBE0F9082
:100310001F9018951F920F920FB60F9211242F93D2
:100320003F934F935F936F937F938F939F93AF937D
:10033000BF93EF93FF93E0919600F091970009959A
:10034000FF91EF91BF91AF919F918F917F916F91AD
:100350005F914F913F912F910F900FBE0F901F9083
:1003600018951F920F920FB60F9211242F933F935F
:100370004F935F936F937F938F939F93AF93BF93AD
:10038000EF93FF93E0919800F09199000995FF9108
:10039000EF91BF91AF919F918F917F916F915F91FD
:1003A0004F913F912F910F900FBE0F901F90189576
:1003B00041E061E082E00E94F00082E08A95F1F77E
:1003C00000C040E061E082E00E94F0008FE99FE021
:1003D0000197F1F700C000000895CF93C82F40E0C7
:1003E00060E082E00E94F0004C2F441F4427441F2D
:1003F00065E082E00E94F000C6FB442740F964E01B
:1004000082E00E94F000C5FB442740F963E082E0EF
:100410000E94F000C4FB442740F962E082E00E94A1
:10042000F0000E94D801C3FB442740F965E082E058
:100430000E94F000C2FB442740F964E082E00E9481
:10044000F000C1FB442740F963E082E00E94F00025
:100450004C2F417062E082E00E94F0000E94D801BF
:10046000CF910895CF93C82F41E060E082E00E94D1
:10047000F000C4FB442740F962E082E00E94F000F3
:10048000C5FB442740F963E082E00E94F000C6FB10
:10049000442740F964E082E00E94F0004C2F441FA2
:1004A0004427441F65E082E00E94F0000E94D801CA
:1004B0004C2F417062E082E00E94F000C1FB4427B3
:1004C00040F963E082E00E94F000C2FB442740F95B
:1004D00064E082E00E94F000C3FB442740F965E03D
:1004E00082E00E94F0000E94D801CF9108958823F5
:1004F00019F0813031F0089580E8860F0E94ED01F7
:10050000089580EC860F0E94ED01089541E060E0BF
:1005100082E00E947D0041E061E082E00E947D0077
:1005200041E062E082E00E947D0041E063E082E021
:100530000E947D0041E064E082E00E947D0041E095
:1005400065E082E00E947D008FE295E70197F1F778
:1005500000C0000083E00E94ED018FE097E2019768
:10056000F1F700C0000083E00E94ED0187EC90E00D
:100570000197F1F700C0000083E00E94ED0182E0E6
:100580000E94ED0188E20E94ED018CE00E94ED01E5
:1005900060E080E00E94770281E00E94ED018FE43C
:1005A00093EC0197F1F700C0000008950E94320219
:1005B0000895CF93DF93EC0103C00E94D6022196E9
:1005C00088818111FACFDF91CF9108950F931F9306
:1005D000CF93DF93CDB7DEB727970FB6F894DEBF82
:1005E0000FBECDBF9F938F9380E690E09F938F9334
:1005F0008E010F5F1F4F1F930F930E94BF03C8010F
:100600000E94D9020F900F900F900F900F900F90B3
:1006100027960FB6F894DEBF0FBECDBFDF91CF9106
:100620001F910F91089540E061E080E00E947D00FD
:1006300041E060E081E00E947D0041E061E081E016
:100640000E947D000E94490081E00E9468000E9493
:1006500086020E94730090939F0080939E009C01ED
:10066000A8E8B3E10E94B0039B01AC01012E1AE09F
:1006700056954795379527951A95D1F7102D3093B4
:100680009D0020939C00ADECBCEC0E94B0039695BD
:100690008795969587959695879590939B008093DF
:1006A0009A004F9728F141E060E081E00E94F0005D
:1006B00041E061E081E00E94F00060E080E00E94A3
:1006C000770283E690E00E94D90280919A0090918F
:1006D0009B000E94E6028AE690E00E94D90260E058
:1006E00081E00E94770281E790E00E94D9022EC04B
:1006F00040E060E081E00E94F00040E061E081E0E5
:100700000E94F00060E080E00E94770283E690E0C3
:100710000E94D90280919A0090919B000E94E6026B
:100720008AE690E00E94D90260E081E00E947702B0
:1007300082E890E00E94D90280919C0090919D00F7
:100740000E94E60289E890E00E94D9022FEF80E73C
:1007500092E0215080409040E1F700C0000079CF46
:10076000A29FB001B39FC001A39F700D811D1124F2
:10077000911DB29F700D811D1124911D0895AEE051
:10078000B0E0E5ECF3E00C9480060D891E8986E06C
:100790008C831A8309838FEF9FE79E838D83AE013D
:1007A000475E5F4F6F89788DCE0101960E94E1030D
:1007B000EF81F885E00FF11F10822E96E4E00C9493
:1007C0009C06ABE0B0E0E7EEF3E00C9472066C013F
:1007D0007B018A01FC0117821682838181FFCCC1D3
:1007E000CE0101963C01F6019381F70193FD8591BD
:1007F00093FF81917F01882309F4BAC1853239F4CE
:1008000093FD859193FF81917F01853229F4B60193
:1008100090E00E94D805E7CF912C212C312CFFE1EC
:10082000F315D8F08B3279F038F4803279F08332D6
:10083000A1F4232D20611DC08D3261F0803369F455
:10084000232D216016C0832D8260382EE32DE460B5
:100850003E2E2AC0F32DF8601DC037FC2DC020EDC0
:10086000280F2A3040F08E32B9F436FC81C1232D96
:100870002064322E19C036FE06C08AE0989E200DF4
:100880001124922E11C0EAE02E9E200D1124222E5A
:10089000F32DF0623F2E08C08C3621F4832D806842
:1008A000382E02C0883641F4F70193FD859193FFFD
:1008B00081917F018111B3CF982F9F7D9554933003
:1008C00028F40C5F1F4F9FE399830DC0833631F0EE
:1008D000833771F0833509F059C021C0F801808158
:1008E00089830E5F1F4F88248394912C530113C07A
:1008F0002801F2E04F0E511CF801A080B18036FEB5
:1009000003C0692D70E002C06FEF7FEFC5010E9448
:10091000CD054C018201F32DFF773F2E16C0280133
:1009200022E0420E511CF801A080B18036FE03C0C7
:10093000692D70E002C06FEF7FEFC5010E94C20514
:100940004C01F32DF0683F2E820133FC1BC0822D39
:1009500090E088169906B0F4B60180E290E00E941B
:10096000D8052A94F4CFF50137FC859137FE8191A3
:100970005F01B60190E00E94D80521102A9421E081
:10098000821A91088114910471F7E8C0843611F03D
:10099000893641F5F80137FE07C060817181828197
:1009A00093810C5F1F4F08C060817181072E000C7E
:1009B000880B990B0E5F1F4FF32DFF763F2E97FF8D
:1009C00009C090958095709561957F4F8F4F9F4F8F
:1009D000F0683F2E2AE030E0A3010E941406882E22
:1009E000861845C0853731F4232D2F7EB22E2AE09C
:1009F00030E025C0932D997FB92E8F36C1F018F4C1
:100A0000883579F0B5C0803719F0883721F0B0C04B
:100A1000E92FE061BE2EB4FE0DC0FB2DF460BF2EA9
:100A200009C034FE0AC0292F2660B22E06C028E075
:100A300030E005C020E130E002C020E132E0F80102
:100A4000B7FE07C060817181828193810C5F1F4F67
:100A500006C06081718180E090E00E5F1F4FA301AE
:100A60000E941406882E8618FB2DFF773F2E36FE37
:100A70000DC0232D2E7FA22E891458F434FE0BC0F6
:100A800032FC09C0832D8E7EA82E05C0B82CA32C65
:100A900003C0B82C01C0B92CA4FE0FC0FE01E80DA4
:100AA000F11D8081803321F49A2D997EA92E09C0F1
:100AB000A2FE06C0B394B39404C08A2D867809F0D0
:100AC000B394A3FC11C0A0FE06C0B21488F4280C95
:100AD000922C9B180EC0B21460F4B60180E290E034
:100AE0000E94D805B394F7CFB21418F42B1802C0A3
:100AF000982C212CA4FE10C0B60180E390E00E9447
:100B0000D805A2FE17C0A1FC03C088E790E002C090
:100B100088E590E0B6010CC08A2D867859F0A1FED8
:100B200002C08BE201C080E2A7FC8DE2B60190E03A
:100B30000E94D805891438F4B60180E390E00E9441
:100B4000D8059A94F7CF8A94F301E80DF11D8081BE
:100B5000B60190E00E94D8058110F5CF222009F45B
:100B600042CEB60180E290E00E94D8052A94F6CFEA
:100B7000F6018681978102C08FEF9FEF2B96E2E10D
:100B80000C948E06FC010590615070400110D8F75E
:100B9000809590958E0F9F1F0895FC0161507040C5
:100BA00001900110D8F7809590958E0F9F1F0895A2
:100BB0000F931F93CF93DF93FB01238121FD03C08C
:100BC0008FEF9FEF2CC022FF16C0468157812481F2
:100BD00035814217530744F4A081B1819D012F5FF5
:100BE0003F4F318320838C93268137812F5F3F4F86
:100BF0003783268314C08B01EC01FB010084F1854F
:100C0000E02D0995892BE1F6D80116968D919C91DE
:100C10001797019617969C938E931697CE01DF91A6
:100C2000CF911F910F910895FA01AA27283051F111
:100C3000203181F1E8946F936E7F6E5F7F4F8F4F0D
:100C40009F4FAF4FB1E03ED0B4E03CD0670F781F6C
:100C5000891F9A1FA11D680F791F8A1F911DA11D51
:100C60006A0F711D811D911DA11D20D009F468948A
:100C70003F912AE0269F11243019305D3193DEF632
:100C8000CF010895462F4770405D4193B3E00FD0E8
:100C9000C9F7F6CF462F4F70405D4A3318F0495DD3
:100CA00031FD4052419302D0A9F7EACFB4E0A695B6
:100CB0009795879577956795BA95C9F700976105D8
:100CC000710508959B01AC010A2E0694579547952E
:100CD00037952795BA95C9F7620F731F841F951F23
:100CE000A01D08952F923F924F925F926F927F9234
:100CF0008F929F92AF92BF92CF92DF92EF92FF922C
:100D00000F931F93CF93DF93CDB7DEB7CA1BDB0BD7
:100D10000FB6F894DEBF0FBECDBF09942A8839887C
:100D200048885F846E847D848C849B84AA84B98483
:100D3000C884DF80EE80FD800C811B81AA81B9818F
:100D4000CE0FD11D0FB6F894DEBF0FBECDBFED01A3
:060D50000895F894FFCFA6
:100D560025640054656D703A200020432020202031
:100D660000205741524E494E472021212121212161
:100D76002100566F6C743A2000206D5620202020EA
:040D86002020000029
:00000001FF
