:100000000C942A000C9434000C9434000C943400AA
:100010000C9434000C9434000C9434000C94340090
:100020000C9434000C9434000C9434000C94340080
:100030000C9434000C9434000C9434000C94340070
:100040000C9434000C9434000C9434000C94340060
:100050000C94340011241FBECFE5D8E0DEBFCDBF25
:100060000E94FA000C94A9010C940000813041F028
:1000700028F0823039F0833039F008956ABB089552
:1000800067BB089564BB089561BB0895813041F05A
:1000900028F0823039F0833039F008956BBB089531
:1000A00062BB089565BB089562BB0895683008F08F
:1000B0006FC04130A1F5813089F028F08230C9F05D
:1000C000833011F108952AB381E090E002C0880FD7
:1000D000991F6A95E2F7822B8ABB089527B381E0C6
:1000E00090E002C0880F991F6A95E2F7822B87BBC8
:1000F000089524B381E090E002C0880F991F6A95AB
:10010000E2F7822B84BB089521B381E090E002C026
:10011000880F991F6A95E2F7822B81BB08954111E0
:1001200037C0813091F028F08230D9F0833029F146
:1001300008952AB381E090E002C0880F991F6A9564
:10014000E2F7809582238ABB089527B381E090E08F
:1001500002C0880F991F6A95E2F78095822387BBBA
:10016000089524B381E090E002C0880F991F6A953A
:10017000E2F78095822384BB089521B381E090E06B
:1001800002C0880F991F6A95E2F78095822381BB90
:100190000895813081F028F08230B9F08330F9F091
:1001A00027C089B390E002C0959587956A95E2F7DC
:1001B000982F91701DC086B390E002C095958795E9
:1001C0006A95E2F7982F917013C083B390E002C054
:1001D000959587956A95E2F7982F917009C080B33D
:1001E00090E002C0959587956A95E2F7982F9170F7
:1001F000892F08956FEF80E00E94360040E060E0B4
:1002000083E00E94560040E061E083E00E945600D7
:10021000C8EED3E00BC0C6E9D0E008C0C8EBDBE015
:1002200005C0C0E0D0E002C0CDEBDBE060E083E0E1
:100230000E94C900182F61E083E00E94C900082FC6
:10024000209779F46FEF80E00E9446008FE19EE4F2
:100250000197F1F700C000001111E8CF013031F72C
:10026000DACFC93B9BE0D90778F060E080E00E94DC
:1002700046008FE19EE40197F1F700C000001130C5
:10028000A9F6002359F2D2CF6FEF80E00E9446001A
:1002900000E010E024C08FE19EE40197F1F700C078
:1002A000000060E083E00E94C900F82E61E083E076
:1002B0000E94C90091E0F91207C0811105C0C03148
:1002C000D10588F02F9709C0F11007C0813029F4BB
:1002D000C83B8BE0D80750F42F96065F1F4F0C17D2
:1002E0001D07C8F205C0C0E0D0E002C0CDEBDBE0E6
:1002F00060E080E00E94460000E010E026C08FE150
:100300009EE40197F1F700C0000060E083E00E94E6
:10031000C900F82E61E083E00E94C90091E0F91263
:1003200008C0811106C0C031D10508F47ACF2F97DB
:100330000AC0F11008C0813031F4C83B8BE0D80707
:1003400008F072CF2F96065F1F4F0C171D07B8F2EB
:060350006DCFF894FFCF11
:00000001FF
