:100000000C942A000C9447000C9447000C94470071
:100010000C9447000C9447000C9447000C94470044
:100020000C9447000C9447000C9447000C94470034
:100030000C9447000C9447000C9447000C94470024
:100040000C9447000C9447000C9447000C94470014
:100050000C94470011241FBECFE5D8E0DEBFCDBF12
:1000600010E0A0E6B0E0ECE0FCE002C005900D92EC
:10007000A438B107D9F720E0A4E8B0E001C01D9290
:10008000A438B207E1F70E949B020C9404060C947A
:100090000000683008F06FC04130A1F5813089F070
:1000A00028F08230C9F0833011F108952AB381E03D
:1000B00090E002C0880F991F6A95E2F7822B8ABBF5
:1000C000089527B381E090E002C0880F991F6A95D8
:1000D000E2F7822B87BB089524B381E090E002C051
:1000E000880F991F6A95E2F7822B84BB089521B38C
:1000F00081E090E002C0880F991F6A95E2F7822B99
:1001000081BB0895411137C0813091F028F08230D1
:10011000D9F0833029F108952AB381E090E002C03C
:10012000880F991F6A95E2F7809582238ABB08950C
:1001300027B381E090E002C0880F991F6A95E2F72B
:100140008095822387BB089524B381E090E002C0AC
:10015000880F991F6A95E2F78095822384BB0895E2
:1001600021B381E090E002C0880F991F6A95E2F701
:100170008095822381BB0895683008F06FC04130BC
:10018000A1F5813089F028F08230C9F0833011F177
:1001900008952BB381E090E002C0880F991F6A9503
:1001A000E2F7822B8BBB089528B381E090E002C078
:1001B000880F991F6A95E2F7822B88BB089525B3B3
:1001C00081E090E002C0880F991F6A95E2F7822BC8
:1001D00085BB089522B381E090E002C0880F991F8B
:1001E0006A95E2F7822B82BB0895411137C08130B6
:1001F00091F028F08230D9F0833029F108952BB3A3
:1002000081E090E002C0880F991F6A95E2F780951F
:1002100082238BBB089528B381E090E002C0880F51
:10022000991F6A95E2F78095822388BB089525B3CC
:1002300081E090E002C0880F991F6A95E2F78095EF
:10024000822385BB089522B381E090E002C0880F2D
:10025000991F6A95E2F78095822382BB08958130C9
:1002600081F028F08230B9F08330F9F027C089B3EB
:1002700090E002C0959587956A95E2F7982F917066
:100280001DC086B390E002C0959587956A95E2F708
:10029000982F917013C083B390E002C09595879515
:1002A0006A95E2F7982F917009C080B390E002C080
:1002B000959587956A95E2F7982F9170892F089503
:1002C00041E061E082E00E94BC0082E08A95F1F7A3
:1002D00000C040E061E082E00E94BC008FE99FE046
:1002E0000197F1F700C000000895CF93C82F40E0B8
:1002F00060E082E00E94BC004C2F441F4427441F52
:1003000065E082E00E94BC00C6FB442740F964E03F
:1003100082E00E94BC00C5FB442740F963E082E014
:100320000E94BC00C4FB442740F962E082E00E94C6
:10033000BC000E946001C3FB442740F965E082E0F5
:100340000E94BC00C2FB442740F964E082E00E94A6
:10035000BC00C1FB442740F963E082E00E94BC007E
:100360004C2F417062E082E00E94BC000E9460015C
:10037000CF910895CF93C82F41E060E082E00E94C2
:10038000BC00C4FB442740F962E082E00E94BC004C
:10039000C5FB442740F963E082E00E94BC00C6FB35
:1003A000442740F964E082E00E94BC004C2F441FC7
:1003B0004427441F65E082E00E94BC000E94600167
:1003C0004C2F417062E082E00E94BC00C1FB4427D8
:1003D00040F963E082E00E94BC00C2FB442740F980
:1003E00064E082E00E94BC00C3FB442740F965E062
:1003F00082E00E94BC000E946001CF910895882392
:1004000019F0813031F0089580E8860F0E9475015F
:10041000089580EC860F0E947501089541E060E028
:1004200082E00E94490041E061E082E00E944900D0
:1004300041E062E082E00E94490041E063E082E046
:100440000E94490041E064E082E00E94490041E0EE
:1004500065E082E00E9449008FE295E70197F1F79D
:1004600000C0000083E00E9475018FE097E20197D1
:10047000F1F700C0000083E00E94750187EC90E076
:100480000197F1F700C0000083E00E94750182E04F
:100490000E94750188E20E9475018CE00E9475013E
:1004A00060E080E00E94FF0181E00E9475018FE41E
:1004B00093EC0197F1F700C0000008950E94BA0183
:1004C0000895CF93DF93EC0103C00E945E02219652
:1004D00088818111FACFDF91CF9108950F931F93F7
:1004E000CF93DF93CDB7DEB727970FB6F894DEBF73
:1004F0000FBECDBF9F938F9380E690E09F938F9325
:100500008E010F5F1F4F1F930F930E941A03C801A4
:100510000E9461020F900F900F900F900F900F901C
:1005200027960FB6F894DEBF0FBECDBFDF91CF91F7
:100530001F910F9108950E940E0260E083E00E94D7
:10054000F40261E083E00E94F40260E081E00E9436
:10055000FF0180E090E00E946E02C0E000E010E049
:1005600001C0C0E060E080E00E94FF0183E690E00F
:100570000E9461026C2F80E00E94FF0189E790E0F9
:100580000E9461022FEF80E792E02150804090406E
:10059000E1F700C0000060E083E00E94F8028130D3
:1005A00061F40930110514F40F5F1F4F60E081E022
:1005B0000E94FF01C8010E946E0261E083E00E9478
:1005C000F802813061F41016110614F4015011097B
:1005D00060E081E00E94FF01C8010E946E02CF5FCF
:1005E000C03109F0BFCFBDCF40E00E94490008955F
:1005F000CF93DF93C82FD62F0E942F018130A1F413
:100600008FE59AEE0197F1F700C000006D2F8C2F57
:100610000E942F01813051F46D2F8C2F0E942F01E9
:100620008130D1F381E003C080E001C080E0DF9140
:10063000CF910895AEE0B0E0E0E2F3E00C94DB058A
:100640000D891E8986E08C831A8309838FEF9FE7CB
:100650009E838D83AE01475E5F4F6F89788DCE019B
:1006600001960E943C03EF81F885E00FF11F108294
:100670002E96E4E00C94F705ABE0B0E0E2E4F3E0A2
:100680000C94CD056C017B018A01FC011782168256
:10069000838181FFCCC1CE0101963C01F60193819B
:1006A000F70193FD859193FF81917F01882309F4E0
:1006B000BAC1853239F493FD859193FF81917F0111
:1006C000853229F4B60190E00E943305E7CF912CE2
:1006D000212C312CFFE1F315D8F08B3279F038F46E
:1006E000803279F08332A1F4232D20611DC08D3238
:1006F00061F0803369F4232D216016C0832D826060
:10070000382EE32DE4603E2E2AC0F32DF8601DC084
:1007100037FC2DC020ED280F2A3040F08E32B9F47E
:1007200036FC81C1232D2064322E19C036FE06C04E
:100730008AE0989E200D1124922E11C0EAE02E9E90
:10074000200D1124222EF32DF0623F2E08C08C368E
:1007500021F4832D8068382E02C0883641F4F701D9
:1007600093FD859193FF81917F018111B3CF982FE4
:100770009F7D9554933028F40C5F1F4F9FE399831E
:100780000DC0833631F0833771F0833509F059C0DD
:1007900021C0F801808189830E5F1F4F88248394D4
:1007A000912C530113C02801F2E04F0E511CF801A7
:1007B000A080B18036FE03C0692D70E002C06FEFEB
:1007C0007FEFC5010E9428054C018201F32DFF77C0
:1007D0003F2E16C0280122E0420E511CF801A080D5
:1007E000B18036FE03C0692D70E002C06FEF7FEF6D
:1007F000C5010E941D054C01F32DF0683F2E8201BA
:1008000033FC1BC0822D90E088169906B0F4B60127
:1008100080E290E00E9433052A94F4CFF50137FC82
:10082000859137FE81915F01B60190E00E9433050A
:1008300021102A9421E0821A91088114910471F701
:10084000E8C0843611F0893641F5F80137FE07C05B
:1008500060817181828193810C5F1F4F08C060812C
:100860007181072E000C880B990B0E5F1F4FF32D23
:10087000FF763F2E97FF09C0909580957095619502
:100880007F4F8F4F9F4FF0683F2E2AE030E0A3014B
:100890000E946F05882E861845C0853731F4232DB8
:1008A0002F7EB22E2AE030E025C0932D997FB92EFD
:1008B0008F36C1F018F4883579F0B5C0803719F05B
:1008C000883721F0B0C0E92FE061BE2EB4FE0DC024
:1008D000FB2DF460BF2E09C034FE0AC0292F26600C
:1008E000B22E06C028E030E005C020E130E002C0B2
:1008F00020E132E0F801B7FE07C06081718182819A
:1009000093810C5F1F4F06C06081718180E090E091
:100910000E5F1F4FA3010E946F05882E8618FB2DC6
:10092000FF773F2E36FE0DC0232D2E7FA22E891479
:1009300058F434FE0BC032FC09C0832D8E7EA82EE5
:1009400005C0B82CA32C03C0B82C01C0B92CA4FE40
:100950000FC0FE01E80DF11D8081803321F49A2D36
:10096000997EA92E09C0A2FE06C0B394B39404C018
:100970008A2D867809F0B394A3FC11C0A0FE06C0AE
:10098000B21488F4280C922C9B180EC0B21460F498
:10099000B60180E290E00E943305B394F7CFB21421
:1009A00018F42B1802C0982C212CA4FE10C0B601FC
:1009B00080E390E00E943305A2FE17C0A1FC03C0B3
:1009C00088E790E002C088E590E0B6010CC08A2D6F
:1009D000867859F0A1FE02C08BE201C080E2A7FC3C
:1009E0008DE2B60190E00E943305891438F4B60117
:1009F00080E390E00E9433059A94F7CF8A94F30144
:100A0000E80DF11D8081B60190E00E943305811050
:100A1000F5CF222009F442CEB60180E290E00E9498
:100A200033052A94F6CFF6018681978102C08FEFB5
:100A30009FEF2B96E2E10C94E905FC0105906150D3
:100A400070400110D8F7809590958E0F9F1F0895E4
:100A5000FC016150704001900110D8F7809590958D
:100A60008E0F9F1F08950F931F93CF93DF93FB016A
:100A7000238121FD03C08FEF9FEF2CC022FF16C002
:100A800046815781248135814217530744F4A08160
:100A9000B1819D012F5F3F4F318320838C9326814D
:100AA00037812F5F3F4F3783268314C08B01EC01C2
:100AB000FB010084F185E02D0995892BE1F6D80131
:100AC00016968D919C911797019617969C938E93ED
:100AD0001697CE01DF91CF911F910F910895FA01E2
:100AE000AA27283051F1203181F1E8946F936E7F6D
:100AF0006E5F7F4F8F4F9F4FAF4FB1E03ED0B4E05E
:100B00003CD0670F781F891F9A1FA11D680F791F9E
:100B10008A1F911DA11D6A0F711D811D911DA11DAF
:100B200020D009F468943F912AE0269F11243019BF
:100B3000305D3193DEF6CF010895462F4770405D5A
:100B40004193B3E00FD0C9F7F6CF462F4F70405D09
:100B50004A3318F0495D31FD4052419302D0A9F764
:100B6000EACFB4E0A6959795879577956795BA955E
:100B7000C9F700976105710508959B01AC010A2E24
:100B800006945795479537952795BA95C9F7620FFB
:100B9000731F841F951FA01D08952F923F924F929F
:100BA0005F926F927F928F929F92AF92BF92CF92FD
:100BB000DF92EF92FF920F931F93CF93DF93CDB706
:100BC000DEB7CA1BDB0B0FB6F894DEBF0FBECDBF7E
:100BD00009942A88398848885F846E847D848C844F
:100BE0009B84AA84B984C884DF80EE80FD800C8158
:100BF0001B81AA81B981CE0FD11D0FB6F894DEBF3B
:0C0C00000FBECDBFED010895F894FFCFAA
:100C0C0025640020202020202020202020202020AF
:100C1C002020202020202020004E54492048454CE4
:040C2C004C4F000029
:00000001FF
