:100000000C942A000C942F010C9456010C947D0141
:100010000C9447000C9447000C9447000C94470044
:100020000C9447000C9447000C9447000C94470034
:100030000C9447000C9447000C9447000C94470024
:100040000C9447000C9447000C9447000C94470014
:100050000C94470011241FBECFE5D8E0DEBFCDBF12
:1000600010E0A0E6B0E0E0EEF3E002C005900D92F3
:10007000A036B107D9F720E0A0E6B0E001C01D929C
:10008000A636B207E1F70E94B0010C94EE010C9481
:100090000000683008F06FC04130A1F5813089F070
:1000A00028F08230C9F0833011F108952AB381E03D
:1000B00090E002C0880F991F6A95E2F7822B8ABBF5
:1000C000089527B381E090E002C0880F991F6A95D8
:1000D000E2F7822B87BB089524B381E090E002C051
:1000E000880F991F6A95E2F7822B84BB089521B38C
:1000F00081E090E002C0880F991F6A95E2F7822B99
:1001000081BB0895411137C0813091F028F08230D1
:10011000D9F0833029F108952AB381E090E002C03C
:10012000880F991F6A95E2F7809582238ABB08950C
:1001300027B381E090E002C0880F991F6A95E2F72B
:100140008095822387BB089524B381E090E002C0AC
:10015000880F991F6A95E2F78095822384BB0895E2
:1001600021B381E090E002C0880F991F6A95E2F701
:100170008095822381BB0895683008F06FC04130BC
:10018000A1F5813089F028F08230C9F0833011F177
:1001900008952BB381E090E002C0880F991F6A9503
:1001A000E2F7822B8BBB089528B381E090E002C078
:1001B000880F991F6A95E2F7822B88BB089525B3B3
:1001C00081E090E002C0880F991F6A95E2F7822BC8
:1001D00085BB089522B381E090E002C0880F991F8B
:1001E0006A95E2F7822B82BB0895411137C08130B6
:1001F00091F028F08230D9F0833029F108952BB3A3
:1002000081E090E002C0880F991F6A95E2F780951F
:1002100082238BBB089528B381E090E002C0880F51
:10022000991F6A95E2F78095822388BB089525B3CC
:1002300081E090E002C0880F991F6A95E2F78095EF
:10024000822385BB089522B381E090E002C0880F2D
:10025000991F6A95E2F78095822382BB08951F92C9
:100260000F920FB60F9211242F933F934F935F93EA
:100270006F937F938F939F93AF93BF93EF93FF936E
:10028000E0916000F09161000995FF91EF91BF91BD
:10029000AF919F918F917F916F915F914F913F911E
:1002A0002F910F900FBE0F901F9018951F920F92D5
:1002B0000FB60F9211242F933F934F935F936F9339
:1002C0007F938F939F93AF93BF93EF93FF93E091AF
:1002D0006200F09163000995FF91EF91BF91AF919A
:1002E0009F918F917F916F915F914F913F912F914E
:1002F0000F900FBE0F901F9018951F920F920FB680
:100300000F9211242F933F934F935F936F937F939B
:100310008F939F93AF93BF93EF93FF93E09164000C
:10032000F09165000995FF91EF91BF91AF919F9179
:100330008F917F916F915F914F913F912F910F908E
:100340000FBE0F901F90189541E00E94490008953C
:1003500041E00E94BC00089540E00E94BC00089566
:1003600060E081E00E94A4010E94C3010E94EA01B2
:10037000813021F460E00E94A801F8CF60E081E0C4
:100380000E94AC01F3CF8DB18F778DB98DB18062B2
:100390008DB98DB18F7E8DB98DB1877F8DB98DB1BE
:1003A0008B7F8DB941E066E081E00E94490040E02A
:1003B00067E081E00E94490040E064E081E00E9443
:1003C000490040E065E081E00E9449008DB1806411
:1003D0008DB90895779BFECF8FB10895F894FFCF24
:00000001FF
