:100000000C942A000C9434000C9434000C943400AA
:100010000C9434000C9434000C9434000C94340090
:100020000C9434000C9434000C9434000C94340080
:100030000C9434000C9434000C9434000C94340070
:100040000C9434000C9434000C9434000C94340060
:100050000C94340011241FBECFE5D8E0DEBFCDBF25
:100060000E9436000C944C000C9400008AB381600E
:100070008ABB8AB380648ABB81B38D7F81BB82B324
:100080008D7F82BB819B04C08BB38F7B8BBBFACFF0
:0C0090008BB380648BBBF6CFF894FFCFDD
:00000001FF
