:100000000C9434000C9446000C9446000C9446006A
:100010000C9446000C9446000C9446000C94460048
:100020000C9446000C9446000C9446000C94460038
:100030000C9446000C9446000C9446000C94460028
:100040000C9446000C9446000C9446000C94460018
:100050000C944600DD01E001E301E601E901EC0159
:10006000EF01F201F501F80111241FBECFE5D8E040
:10007000DEBFCDBF20E0A0E6B0E001C01D92A136FA
:10008000B207E1F70E941E030C94E5030C940000F4
:1000900041E060E080E00E94FB0141E061E080E03F
:1000A0000E94FB0141E062E080E00E94FB0141E030
:1000B00063E080E00E94FB0141E064E080E00E9498
:1000C000FB0141E065E080E00E94FB0141E066E069
:1000D00080E00E94FB01089541E060E080E00E9422
:1000E0006E0241E061E080E00E946E0241E062E069
:1000F00080E00E946E0241E063E080E00E946E02B8
:1001000041E064E080E00E946E0241E065E080E052
:100110000E946E0240E066E080E00E946E02089558
:1001200040E060E080E00E946E0241E061E080E03B
:100130000E946E0241E062E080E00E946E0240E0B8
:1001400063E080E00E946E0240E064E080E00E9494
:100150006E0240E065E080E00E946E0240E066E0F2
:1001600080E00E946E02089541E060E080E00E941D
:100170006E0241E061E080E00E946E0240E062E0D9
:1001800080E00E946E0241E063E080E00E946E0227
:1001900041E064E080E00E946E0240E065E080E0C3
:1001A0000E946E0241E066E080E00E946E020895C7
:1001B00041E060E080E00E946E0241E061E080E0AA
:1001C0000E946E0241E062E080E00E946E0241E027
:1001D00063E080E00E946E0240E064E080E00E9404
:1001E0006E0240E065E080E00E946E0241E066E061
:1001F00080E00E946E02089540E060E080E00E948E
:100200006E0241E061E080E00E946E0241E062E047
:1002100080E00E946E0240E063E080E00E946E0297
:1002200040E064E080E00E946E0241E065E080E032
:100230000E946E0241E066E080E00E946E02089536
:1002400041E060E080E00E946E0240E061E080E01A
:100250000E946E0241E062E080E00E946E0241E096
:1002600063E080E00E946E0240E064E080E00E9473
:100270006E0241E065E080E00E946E0241E066E0CF
:1002800080E00E946E02089541E060E080E00E94FC
:100290006E0240E061E080E00E946E0241E062E0B8
:1002A00080E00E946E0241E063E080E00E946E0206
:1002B00041E064E080E00E946E0241E065E080E0A1
:1002C0000E946E0241E066E080E00E946E020895A6
:1002D00041E060E080E00E946E0241E061E080E089
:1002E0000E946E0241E062E080E00E946E0240E007
:1002F00063E080E00E946E0240E064E080E00E94E3
:100300006E0240E065E080E00E946E0240E066E040
:1003100080E00E946E02089541E060E080E00E946B
:100320006E0241E061E080E00E946E0241E062E026
:1003300080E00E946E0241E063E080E00E946E0275
:1003400041E064E080E00E946E0241E065E080E010
:100350000E946E0241E066E080E00E946E02089515
:1003600041E060E080E00E946E0241E061E080E0F8
:100370000E946E0241E062E080E00E946E0241E075
:1003800063E080E00E946E0240E064E080E00E9452
:100390006E0241E065E080E00E946E0241E066E0AE
:1003A00080E00E946E02089590E08A30910510F579
:1003B000FC01E65DFF4F0C94DF030E946C00089582
:1003C0000E94900008950E94B40008950E94D800F1
:1003D00008950E94FC0008950E94200108950E9443
:1003E000440108950E94680108950E948C010895B7
:1003F0000E94B0010895683008F06FC04130A1F547
:10040000813089F028F08230C9F0833011F10895ED
:100410002AB381E090E002C0880F991F6A95E2F745
:10042000822B8ABB089527B381E090E002C0880F39
:10043000991F6A95E2F7822B87BB089524B381E068
:1004400090E002C0880F991F6A95E2F7822B84BB67
:10045000089521B381E090E002C0880F991F6A954A
:10046000E2F7822B81BB0895411137C0813091F0B2
:1004700028F08230D9F0833029F108952AB381E041
:1004800090E002C0880F991F6A95E2F78095822359
:100490008ABB089527B381E090E002C0880F991FBE
:1004A0006A95E2F78095822387BB089524B381E0A3
:1004B00090E002C0880F991F6A95E2F78095822329
:1004C00084BB089521B381E090E002C0880F991F9A
:1004D0006A95E2F78095822381BB0895683008F021
:1004E0006FC04130A1F5813089F028F08230C9F029
:1004F000833011F108952BB381E090E002C0880FA2
:10050000991F6A95E2F7822B8BBB089528B381E08F
:1005100090E002C0880F991F6A95E2F7822B88BB92
:10052000089525B381E090E002C0880F991F6A9575
:10053000E2F7822B85BB089522B381E090E002C0F0
:10054000880F991F6A95E2F7822B82BB08954111AB
:1005500037C0813091F028F08230D9F0833029F112
:1005600008952BB381E090E002C0880F991F6A952F
:10057000E2F7809582238BBB089528B381E090E059
:1005800002C0880F991F6A95E2F78095822388BB85
:10059000089525B381E090E002C0880F991F6A9505
:1005A000E2F78095822385BB089522B381E090E035
:1005B00002C0880F991F6A95E2F78095822382BB5B
:1005C0000895813081F028F08230B9F08330F9F05D
:1005D00027C089B390E002C0959587956A95E2F7A8
:1005E000982F91701DC086B390E002C095958795B5
:1005F0006A95E2F7982F917013C083B390E002C020
:10060000959587956A95E2F7982F917009C080B308
:1006100090E002C0959587956A95E2F7982F9170C2
:10062000892F089541E00E94FB01089541E00E9456
:100630006E02089540E00E946E0208950E944800F4
:1006400060E081E00E94120361E081E00E941203F9
:1006500062E081E00E94120363E081E00E941203E5
:1006600060E083E00E94B703C9E001C0C9E060E038
:1006700083E00E94BB03D82F1C2F8C2F0E94D40133
:10068000D1112FC063E081E00E941A03C7306CF0E3
:1006900060E081E00E94160361E081E00E941A039D
:1006A00062E081E00E941A0330C0C4306CF060E068
:1006B00081E00E941A0361E081E00E94160362E07B
:1006C00081E00E941A0321C060E081E00E941A03C9
:1006D00061E081E00E941A0362E081E00E9416035B
:1006E00014C0D13091F463E081E00E941603C83059
:1006F0007CF060E081E00E94160361E081E00E94EE
:100700001A0362E081E00E941A03C0E0D0E027C033
:10071000C6306CF060E081E00E941A0361E081E085
:100720000E94160362E081E00E941A03EECF60E0AF
:1007300081E00E941A0361E081E00E941A0362E0F6
:1007400081E00E941603E1CF8FE19EE40197F1F76B
:1007500000C0000060E083E00E94BB032196C43625
:10076000D10590F3CFEFC10F0AF081CF7FCF40E0EA
:100770000E94FB010895CF93DF93C82FD62F0E94CC
:10078000E1028130B9F48FE59AEE0197F1F700C0EC
:1007900000006D2F8C2F0E94E102813059F490915E
:1007A00060008927809360006D2F8C2F0E94E102EA
:1007B0008130D1F380916000DF91CF910895EE0FE9
:0E07C000FF1F0590F491E02D0994F894FFCFEF
:00000001FF
