:100000000C942A000C94BD010C94E4010C940B0296
:100010000C9447000C9447000C9447000C94470044
:100020000C9447000C9447000C9447000C94470034
:100030000C9447000C9447000C9447000C94470024
:100040000C9471030C9447000C9447000C944700E7
:100050000C94470011241FBECFE5D8E0DEBFCDBF12
:1000600010E0A0E6B0E0E4ECFDE002C005900D92E7
:10007000A037B107D9F720E0A0E7B0E001C01D929A
:10008000A937B207E1F70E9488030C94E0060C94AC
:10009000000087B1806487B987B18F7787B987B14E
:1000A0008F7D87B986B1816086B986B1826086B955
:1000B00086B18B7F86B986B18F7786B986B1877F07
:1000C00086B986B1806186B986B1806886B908959F
:1000D00097B1907E97B997B1892B87B90895683009
:1000E00008F06FC04130A1F5813089F028F08230EE
:1000F000C9F0833011F108952AB381E090E002C085
:10010000880F991F6A95E2F7822B8ABB089527B35F
:1001100081E090E002C0880F991F6A95E2F7822B78
:1001200087BB089524B381E090E002C0880F991F37
:100130006A95E2F7822B84BB089521B381E090E0B9
:1001400002C0880F991F6A95E2F7822B81BB089540
:10015000411137C0813091F028F08230D9F08330DE
:1001600029F108952AB381E090E002C0880F991F19
:100170006A95E2F7809582238ABB089527B381E0D0
:1001800090E002C0880F991F6A95E2F7809582235C
:1001900087BB089524B381E090E002C0880F991FC7
:1001A0006A95E2F78095822384BB089521B381E0AC
:1001B00090E002C0880F991F6A95E2F7809582232C
:1001C00081BB0895683008F06FC04130A1F58130DF
:1001D00089F028F08230C9F0833011F108952BB3F3
:1001E00081E090E002C0880F991F6A95E2F7822BA8
:1001F0008BBB089528B381E090E002C0880F991F5F
:100200006A95E2F7822B88BB089525B381E090E0E0
:1002100002C0880F991F6A95E2F7822B85BB08956B
:1002200022B381E090E002C0880F991F6A95E2F73F
:10023000822B82BB0895411137C0813091F028F0A4
:100240008230D9F0833029F108952BB381E090E01A
:1002500002C0880F991F6A95E2F7809582238BBBB5
:10026000089528B381E090E002C0880F991F6A9535
:10027000E2F78095822388BB089525B381E090E062
:1002800002C0880F991F6A95E2F78095822385BB8B
:10029000089522B381E090E002C0880F991F6A950B
:1002A000E2F78095822382BB0895CF93C62F8130D9
:1002B000F1F018F08230A9F147C040E062E083E03D
:1002C0000E946F00C11107C085B78E7F85BF85B7BB
:1002D000826085BF08C0C13031F485B7816085BFB9
:1002E00085B7826085BF8BB780648BBF2DC040E02F
:1002F00063E083E00E946F00C11107C085B78B7F68
:1003000085BF85B7886085BF08C0C13031F485B727
:10031000846085BF85B7886085BF8BB780688BBFD9
:1003200013C040E062E081E00E946F00C11104C090
:1003300084B78F7B84BF05C0C13019F484B7806453
:1003400084BF8BB780628BBFCF9108950097A1F0D7
:10035000613049F018F0623059F0089590937100BF
:1003600080937000089590937300809372000895B5
:10037000909375008093740008951F920F920FB6AA
:100380000F9211242F933F934F935F936F937F931B
:100390008F939F93AF93BF93EF93FF93E091700080
:1003A000F09171000995FF91EF91BF91AF919F91ED
:1003B0008F917F916F915F914F913F912F910F900E
:1003C0000FBE0F901F9018951F920F920FB60F92AD
:1003D00011242F933F934F935F936F937F938F934A
:1003E0009F93AF93BF93EF93FF93E0917200F091CF
:1003F00073000995FF91EF91BF91AF919F918F91FC
:100400007F916F915F914F913F912F910F900FBE10
:100410000F901F9018951F920F920FB60F921124F4
:100420002F933F934F935F936F937F938F939F93FC
:10043000AF93BF93EF93FF93E0917400F091750039
:100440000995FF91EF91BF91AF919F918F917F910E
:100450006F915F914F913F912F910F900FBE0F9031
:100460001F9018958FB780688FBF089541E061E0B5
:1004700082E00E94E20082E08A95F1F700C040E04D
:1004800061E082E00E94E2008FE99FE00197F1F7CE
:1004900000C000000895CF93C82F40E060E082E0E4
:1004A0000E94E2004C2F441F4427441F65E082E075
:1004B0000E94E200C6FB442740F964E082E00E940B
:1004C000E200C5FB442740F963E082E00E94E200BD
:1004D000C4FB442740F962E082E00E94E2000E94EF
:1004E0003602C3FB442740F965E082E00E94E20047
:1004F000C2FB442740F964E082E00E94E200C1FBB5
:10050000442740F963E082E00E94E2004C2F4170F2
:1005100062E082E00E94E2000E943602CF910895DC
:10052000CF93C82F41E060E082E00E94E200C4FB6C
:10053000442740F962E082E00E94E200C5FB4427C4
:1005400040F963E082E00E94E200C6FB442740F9E4
:1005500064E082E00E94E2004C2F441F4427441FC5
:1005600065E082E00E94E2000E9436024C2F41705A
:1005700062E082E00E94E200C1FB442740F963E0B0
:1005800082E00E94E200C2FB442740F964E082E07E
:100590000E94E200C3FB442740F965E082E00E942C
:1005A000E2000E943602CF910895882319F081302D
:1005B00031F0089580E8860F0E944B02089580EC88
:1005C000860F0E944B02089541E060E082E00E94A5
:1005D0006F0041E061E082E00E946F0041E062E074
:1005E00082E00E946F0041E063E082E00E946F00C1
:1005F00041E064E082E00E946F0041E065E082E05B
:100600000E946F008FE295E70197F1F700C00000AC
:1006100083E00E944B028FE097E20197F1F700C060
:10062000000083E00E944B0287EC90E00197F1F715
:1006300000C0000083E00E944B0282E00E944B0257
:1006400088E20E944B028CE00E944B0260E080E056
:100650000E94D50281E00E944B028FE493EC019747
:10066000F1F700C0000008950E9490020895CF9312
:10067000DF93EC0103C00E9434032196888181112D
:10068000FACFDF91CF9108950F931F93CF93DF930C
:10069000CDB7DEB727970FB6F894DEBF0FBECDBF3C
:1006A0009F938F9380E690E09F938F938E010F5FCF
:1006B0001F4F1F930F930E94F603C8010E94370338
:1006C0000F900F900F900F900F900F9027960FB6EE
:1006D000F894DEBF0FBECDBFDF91CF911F910F9178
:1006E00008951F920F920FB60F9211248F939F932C
:1006F00084B195B1909378008093770081E08093E6
:1007000076009F918F910F900FBE0F901F901895BC
:1007100040E060E080E00E946F0040E062E083E043
:100720000E946F000E94E4020E94490080E00E9443
:10073000680080B78F7780BF80B7806480BF80B744
:100740008F7D80BF86B1806286B986B1886086B9A8
:1007500061E080E00E94550160E081E793E00E9443
:10076000A6010E943202809176008130E1F720914B
:10077000770030917800A8E8B3E10E94E7039B017D
:10078000AC01012E1AE056954795379527951A9595
:10079000D1F7102DADECBCEC0E94E703EC01D6952F
:1007A000C795D695C795D695C79560E080E00E941D
:1007B000D50283E690E00E943703CE010E944403F5
:1007C0008AE690E00E94370310927600CCCFA29F79
:1007D000B001B39FC001A39F700D811D1124911D15
:1007E000B29F700D811D1124911D0895AEE0B0E0FF
:1007F000ECEFF3E00C94B7060D891E8986E08C833C
:100800001A8309838FEF9FE79E838D83AE01475E36
:100810005F4F6F89788DCE0101960E941804EF8199
:10082000F885E00FF11F10822E96E4E00C94D306B9
:10083000ABE0B0E0EEE1F4E00C94A9066C017B01C2
:100840008A01FC0117821682838181FFCCC1CE010F
:1008500001963C01F6019381F70193FD859193FF89
:1008600081917F01882309F4BAC1853239F493FD5F
:10087000859193FF81917F01853229F4B60190E043
:100880000E940F06E7CF912C212C312CFFE1F315AC
:10089000D8F08B3279F038F4803279F08332A1F4D9
:1008A000232D20611DC08D3261F0803369F4232D2A
:1008B000216016C0832D8260382EE32DE4603E2E29
:1008C0002AC0F32DF8601DC037FC2DC020ED280F85
:1008D0002A3040F08E32B9F436FC81C1232D2064D9
:1008E000322E19C036FE06C08AE0989E200D1124D3
:1008F000922E11C0EAE02E9E200D1124222EF32DFF
:10090000F0623F2E08C08C3621F4832D8068382E8B
:1009100002C0883641F4F70193FD859193FF8191E0
:100920007F018111B3CF982F9F7D9554933028F488
:100930000C5F1F4F9FE399830DC0833631F08337DF
:1009400071F0833509F059C021C0F8018081898395
:100950000E5F1F4F88248394912C530113C02801EC
:10096000F2E04F0E511CF801A080B18036FE03C0AA
:10097000692D70E002C06FEF7FEFC5010E94040691
:100980004C018201F32DFF773F2E16C0280122E093
:10099000420E511CF801A080B18036FE03C0692DC3
:1009A00070E002C06FEF7FEFC5010E94F9054C01B6
:1009B000F32DF0683F2E820133FC1BC0822D90E0A6
:1009C00088169906B0F4B60180E290E00E940F0606
:1009D0002A94F4CFF50137FC859137FE81915F01B0
:1009E000B60190E00E940F0621102A9421E0821A9D
:1009F00091088114910471F7E8C0843611F08936AA
:100A000041F5F80137FE07C06081718182819381D1
:100A10000C5F1F4F08C060817181072E000C880B8E
:100A2000990B0E5F1F4FF32DFF763F2E97FF09C0E6
:100A300090958095709561957F4F8F4F9F4FF0688F
:100A40003F2E2AE030E0A3010E944B06882E861834
:100A500045C0853731F4232D2F7EB22E2AE030E0B9
:100A600025C0932D997FB92E8F36C1F018F48835A3
:100A700079F0B5C0803719F0883721F0B0C0E92F80
:100A8000E061BE2EB4FE0DC0FB2DF460BF2E09C088
:100A900034FE0AC0292F2660B22E06C028E030E0BE
:100AA00005C020E130E002C020E132E0F801B7FEED
:100AB00007C060817181828193810C5F1F4F06C0E6
:100AC0006081718180E090E00E5F1F4FA3010E9462
:100AD0004B06882E8618FB2DFF773F2E36FE0DC065
:100AE000232D2E7FA22E891458F434FE0BC032FC25
:100AF00009C0832D8E7EA82E05C0B82CA32C03C060
:100B0000B82C01C0B92CA4FE0FC0FE01E80DF11DE8
:100B10008081803321F49A2D997EA92E09C0A2FEEE
:100B200006C0B394B39404C08A2D867809F0B394B8
:100B3000A3FC11C0A0FE06C0B21488F4280C922CAD
:100B40009B180EC0B21460F4B60180E290E00E94DF
:100B50000F06B394F7CFB21418F42B1802C0982CD8
:100B6000212CA4FE10C0B60180E390E00E940F0685
:100B7000A2FE17C0A1FC03C088E790E002C088E590
:100B800090E0B6010CC08A2D867859F0A1FE02C013
:100B90008BE201C080E2A7FC8DE2B60190E00E94EA
:100BA0000F06891438F4B60180E390E00E940F0626
:100BB0009A94F7CF8A94F301E80DF11D8081B60174
:100BC00090E00E940F068110F5CF222009F442CE5A
:100BD000B60180E290E00E940F062A94F6CFF6015B
:100BE0008681978102C08FEF9FEF2B96E2E10C94F4
:100BF000C506FC010590615070400110D8F7809542
:100C000090958E0F9F1F0895FC01615070400190D8
:100C10000110D8F7809590958E0F9F1F08950F9320
:100C20001F93CF93DF93FB01238121FD03C08FEF3F
:100C30009FEF2CC022FF16C0468157812481358149
:100C40004217530744F4A081B1819D012F5F3F4FAC
:100C5000318320838C93268137812F5F3F4F3783E9
:100C6000268314C08B01EC01FB010084F185E02D8B
:100C70000995892BE1F6D80116968D919C911797CD
:100C8000019617969C938E931697CE01DF91CF9184
:100C90001F910F910895FA01AA27283051F12031B0
:100CA00081F1E8946F936E7F6E5F7F4F8F4F9F4F00
:100CB000AF4FB1E03ED0B4E03CD0670F781F891F42
:100CC0009A1FA11D680F791F8A1F911DA11D6A0F10
:100CD000711D811D911DA11D20D009F468943F91C3
:100CE0002AE0269F11243019305D3193DEF6CF01C2
:100CF0000895462F4770405D4193B3E00FD0C9F788
:100D0000F6CF462F4F70405D4A3318F0495D31FDF4
:100D10004052419302D0A9F7EACFB4E0A695979547
:100D2000879577956795BA95C9F70097610571051D
:100D300008959B01AC010A2E069457954795379567
:100D40002795BA95C9F7620F731F841F951FA01DC1
:100D500008952F923F924F925F926F927F928F925F
:100D60009F92AF92BF92CF92DF92EF92FF920F933A
:100D70001F93CF93DF93CDB7DEB7CA1BDB0B0FB644
:100D8000F894DEBF0FBECDBF09942A883988488801
:100D90005F846E847D848C849B84AA84B984C88497
:100DA000DF80EE80FD800C811B81AA81B981CE0F8E
:100DB000D11D0FB6F894DEBF0FBECDBFED01089573
:040DC000F894FFCFD5
:100DC40025640054656D703A2000204320202000E3
:00000001FF
