:100000000C942A000C943F000C943F000C943F0089
:100010000C943F000C943F000C943F000C943F0064
:100020000C943F000C943F000C943F000C943F0054
:100030000C943F000C943F000C943F000C943F0044
:100040000C943F000C943F000C943F000C943F0034
:100050000C943F0011241FBECFE5D8E0DEBFCDBF1A
:1000600010E0A0E6B0E0EAEEF1E002C005900D92EB
:10007000AA36B107D9F70E9492000C94F3000C94B1
:100080000000813041F028F0823039F0833039F0BF
:1000900008956ABB089567BB089564BB089561BB6A
:1000A0000895813041F028F0823039F0833039F002
:1000B00008956BBB089562BB089565BB089562BB4C
:1000C0000895813081F028F08230B9F08330F9F062
:1000D00027C089B390E002C0959587956A95E2F7AD
:1000E000982F91701DC086B390E002C095958795BA
:1000F0006A95E2F7982F917013C083B390E002C025
:10010000959587956A95E2F7982F917009C080B30D
:1001100090E002C0959587956A95E2F7982F9170C7
:10012000892F0895CF93DF93CDB7DEB72A970FB607
:10013000F894DEBF0FBECDBF8AE0E0E6F0E0DE015E
:10014000119601900D928A95E1F76FEF80E00E9481
:10015000410060E083E00E9441006FE380E00E9484
:10016000510010E060E083E00E946100813031F0D6
:1001700061E083E00E9461008130A1F78FE59AEE93
:100180000197F1F700C0000060E083E00E94610089
:10019000813021F41F5F1A3054F40CC061E083E019
:1001A0000E946100813031F4115022F402C010E04D
:1001B00001C019E0E1E0F0E0EC0FFD1FE10FF11DDF
:1001C00017FDFA95608180E00E94510060E083E0B5
:1001D0000E9461008130D1F361E083E00E94610000
:0A01E0008130A1F3BFCFF894FFCFE8
:0A01EA003F065B4F666D7D077F6FD7
:00000001FF
