:100000000C942A000C9434000C9434000C943400AA
:100010000C9434000C9434000C9434000C94340090
:100020000C9434000C9434000C9434000C94340080
:100030000C9434000C9434000C9434000C94340070
:100040000C9434000C9434000C9434000C94340060
:100050000C94340011241FBECFE5D8E0DEBFCDBF25
:100060000E9436000C945F000C9400008AB38160FB
:100070008ABB8AB380648ABB81B38E7F81BB81B324
:100080008D7F81BB81B38B7F81BB82B38E7F82BB2F
:1000900082B38D7F82BB82B38B7F82BB90B380B3F0
:1000A00082FB882780F991FD02C0882321F08BB361
:1000B00080648BBBF3CF8BB38F7B8BBBEFCFF8947C
:0200C000FFCF70
:00000001FF
