:100000000C942A000C948C010C94B3010C94DA012A
:100010000C943C000C943C000C943C000C943C0070
:100020000C943C000C943C000C943C000C943C0060
:100030000C943C000C943C000C943C000C943C0050
:100040000C943C000C943C000C943C000C943C0040
:100050000C943C0011241FBECFE5D8E0DEBFCDBF1D
:1000600020E0A0E6B0E001C01D92A636B207E1F79D
:100070000E9453020C949B020C940000683008F01C
:100080006FC04130A1F5813089F028F08230C9F08D
:10009000833011F108952AB381E090E002C0880F07
:1000A000991F6A95E2F7822B8ABB089527B381E0F6
:1000B00090E002C0880F991F6A95E2F7822B87BBF8
:1000C000089524B381E090E002C0880F991F6A95DB
:1000D000E2F7822B84BB089521B381E090E002C057
:1000E000880F991F6A95E2F7822B81BB0895411111
:1000F00037C0813091F028F08230D9F0833029F177
:1001000008952AB381E090E002C0880F991F6A9594
:10011000E2F7809582238ABB089527B381E090E0BF
:1001200002C0880F991F6A95E2F78095822387BBEA
:10013000089524B381E090E002C0880F991F6A956A
:10014000E2F78095822384BB089521B381E090E09B
:1001500002C0880F991F6A95E2F78095822381BBC0
:100160000895683008F06FC04130A1F5813089F002
:1001700028F08230C9F0833011F108952BB381E06B
:1001800090E002C0880F991F6A95E2F7822B8BBB23
:10019000089528B381E090E002C0880F991F6A9506
:1001A000E2F7822B88BB089525B381E090E002C07E
:1001B000880F991F6A95E2F7822B85BB089522B3B9
:1001C00081E090E002C0880F991F6A95E2F7822BC8
:1001D00082BB0895411137C0813091F028F0823000
:1001E000D9F0833029F108952BB381E090E002C06B
:1001F000880F991F6A95E2F7809582238BBB08953B
:1002000028B381E090E002C0880F991F6A95E2F759
:100210008095822388BB089525B381E090E002C0D9
:10022000880F991F6A95E2F78095822385BB089510
:1002300022B381E090E002C0880F991F6A95E2F72F
:100240008095822382BB0895CF93C62F8130F1F031
:1002500018F08230A9F147C040E062E083E00E94DC
:100260003E00C11107C085B78E7F85BF85B782600C
:1002700085BF08C0C13031F485B7816085BF85B7BF
:10028000826085BF8BB780648BBF2DC040E063E088
:1002900083E00E943E00C11107C085B78B7F85BFF8
:1002A00085B7886085BF08C0C13031F485B78460E8
:1002B00085BF85B7886085BF8BB780688BBF13C04B
:1002C00040E062E081E00E943E00C11104C084B7BA
:1002D0008F7B84BF05C0C13019F484B7806484BFAC
:1002E0008BB780628BBFCF9108950097A1F06130EA
:1002F00049F018F0623059F00895909361008093AE
:100300006000089590936300809362000895909335
:1003100065008093640008951F920F920FB60F92AC
:1003200011242F933F934F935F936F937F938F93FA
:100330009F93AF93BF93EF93FF93E0916000F09191
:1003400061000995FF91EF91BF91AF919F918F91BE
:100350007F916F915F914F913F912F910F900FBEC1
:100360000F901F9018951F920F920FB60F921124A5
:100370002F933F934F935F936F937F938F939F93AD
:10038000AF93BF93EF93FF93E0916200F09163000E
:100390000995FF91EF91BF91AF919F918F917F91BF
:1003A0006F915F914F913F912F910F900FBE0F90E2
:1003B0001F9018951F920F920FB60F9211242F9332
:1003C0003F934F935F936F937F938F939F93AF93DD
:1003D000BF93EF93FF93E0916400F091650009955E
:1003E000FF91EF91BF91AF919F918F917F916F910D
:1003F0005F914F913F912F910F900FBE0F901F90E3
:1004000018958FB780688FBF089541E00E943E0025
:10041000089541E00E94B100089540E00E94B100BB
:10042000089563E080E00E940D0260E080E00E9499
:1004300009022FEF89E698E1215080409040E1F7D2
:1004400000C0000060E080E00E940D02089563E0BB
:1004500080E00E940D0261E080E00E9409022FEF1F
:1004600089E698E1215080409040E1F700C000000B
:1004700061E080E00E940D02089563E080E00E9448
:100480000D0262E080E00E9409022FEF89E698E108
:10049000215080409040E1F700C0000062E080E021
:1004A0000E940D02089563E080E00E94050260E072
:1004B00080E00E94050261E080E00E94050262E0A7
:1004C00080E00E94050260E081E192E00E947501F7
:1004D00061E087E292E00E94750162E08DE392E0C4
:1004E0000E94750161E080E00E94240161E081E0EA
:1004F0000E94240161E082E00E9424010E94010226
:1005000063E080E00E9409022FEF81EE94E0215029
:1005100080409040E1F700C0000063E080E00E946E
:100520000D022FEF81EE94E0215080409040E1F7E2
:0A05300000C00000E5CFF894FFCFF3
:00000001FF
