:100000000C942A000C9434000C9434000C943400AA
:100010000C9434000C9434000C9434000C94340090
:100020000C9434000C9434000C9434000C94340080
:100030000C9434000C9434000C9434000C94340070
:100040000C9434000C9434000C9434000C94340060
:100050000C94340011241FBECFE5D8E0DEBFCDBF25
:100060000E9436000C94A1000C9400008AB38160B9
:100070008ABB8AB380648ABB81B38E7F81BB81B324
:100080008D7F81BB81B38B7F81BB81B3877F81BB38
:1000900081B38F7E81BB81B38F7D81BB82B38E7F25
:1000A00082BB82B38D7F82BB82B38B7F82BB82B3E4
:1000B000877F82BB82B38F7E82BB82B38F7D82BB00
:1000C00020E0809B15C08FE59AEE0197F1F700C004
:1000D0000000809B0DC0211105C08BB381608BBBDC
:1000E00021E004C08BB38E7F8BBB20E08099FECFD4
:1000F00090B380B382FB882780F991FF06C08823E4
:1001000021F08BB384608BBB03C08BB38B7F8BBB25
:1001100090B380B38295817093FD02C0882321F053
:100120008BB380618BBB03C08BB38F7E8BBB859BF6
:1001300004C08BB38F7B8BBBC4CF8BB380648BBB72
:06014000C0CFF894FFCFD0
:00000001FF
