S00D00005465616D342E737265635C
S11300000C942A000C947F040C94A8040C94E3042C
S11300100C9447000C9447000C9447000C94470040
S11300200C9447000C9447000C9447000C94470030
S11300300C9447000C9447000C9447000C94470020
S11300400C9486020C9447000C9447000C944700CF
S11300500C94470011241FBECFE5D8E0DEBFCDBF0E
S113006011E0A0E6B0E0ECECF3E102C005900D92E3
S1130070AE30B107D9F721E0AEE0B1E001C01D9286
S1130080AE32B207E1F70E9474090C94E4090C94AF
S11300900000CF93DF93C82FD62F40E00E94C20206
S11300A040E06D2F8C2F0E943B03DF91CF91089588
S11300B00E94B403813009F080E00895CF93DF9368
S11300C0009779F1EC018881833018F4813020F0B5
S11300D00BC08330F9F025C063E080E00E941C056A
S11300E080E00E943B051DC069817A818B819C81DF
S11300F040E00E9494058881813031F40E9480059B
S113010080E00E9453060DC00E948A0580E00E9490
S1130110730607C064E080E00E944E0580E00E9400
S11301206D05DF91CF9108950097E1F0653608F0F1
S113013064E6FC019081913051F028F0923059F03E
S1130140933069F00895862F0E943B050895862F09
S11301500E9453060895862F0E9473060895862FE1
S11301600E946D050895CF93C82F482F417062E017
S113017083E40E943B03C1FB442740F963E083E42A
S11301800E943B03C2FB442740F964E083E40E94DD
S11301903B03C3FB442740F965E083E40E943B032F
S11301A0CF91089541E061E083E40E943B0382E043
S11301B08A95F1F700C040E061E083E40E943B03CC
S11301C087EC90E00197F1F700C000000895CF9309
S11301D0C82F40E060E083E40E943B038C2F8295AB
S11301E08F700E94B3000E94D2008C2F0E94B30033
S11301F00E94D20080E0CF910895CF93C82F41E0B0
S113020060E083E40E943B038C2F82958F700E94F0
S1130210B3000E94D2008C2F0E94B3000E94D2002F
S113022080E0CF910895CF92DF92EF92FF92CF9327
S1130230DF93009799F0EC01C12CD12C760107C013
S11302400E94FD008FEFC81AD80AE80AF80AFE01D6
S1130250EC0DFD1D80818111F3CF01C082E0DF919F
S1130260CF91FF90EF90DF90CF900895CF92DF92DF
S1130270EF92FF921F93CF93DF93CDB7DEB72B9707
S11302800FB6F894DEBF0FBECDBF6B017C016115C4
S113029071058105910521F480E30E94FD0039C0B8
S11302A099235CF48DE20E94FD00F094E094D094D4
S11302B0C094C11CD11CE11CF11C10E015C0C70185
S11302C0B6012AE030E040E050E00E94AB09605DF6
S11302D0E1E0F0E0EC0FFD1FE10FF11D6083C22EA1
S11302E0D32EE42EF52E1F5F1C141D041E041F04C0
S11302F034F30DC0E12FF0E0319781E090E08C0FF2
S11303009D1FE80FF91F80810E94FD0011501111FB
S1130310F1CF80E02B960FB6F894DEBF0FBECDBFB1
S1130320DF91CF911F91FF90EF90DF90CF900895D0
S113033081E00E94E700EFE9FFE03197F1F700C0A8
S11303400000089541E060E083E40E94C20241E0BD
S113035061E083E40E94C20241E062E083E40E941F
S1130360C20241E063E083E40E94C20241E064E02F
S113037083E40E94C20241E065E083E40E94C20279
S11303808FE39CE90197F1F700C0000083E00E942D
S1130390B3000E94D2008FE097E20197F1F700C00A
S11303A0000083E00E94B3000E94D2008BE291E03F
S11303B00197F1F700C0000083E00E94B3000E949F
S11303C0D20082E00E94B3000E94D20088E20E9420
S11303D0E7008CE00E94E7000E94980186E00E94FA
S11303E0E70080E00895643100F5813061F028F081
S11303F0823079F0833099F01AC080E8860F0E9429
S1130400E70080E0089580EC860F0E94E70080E01A
S1130410089584E9860F0E94E70080E0089584ED42
S1130420860F0E94E70080E0089583E0089583E04A
S1130430089541E00E943B03089540E00E943B037D
S11304400895CF93DF93C82FD62F41E00E94C202B4
S11304506D2F8C2F0E941D02DF91CF910895CF93B1
S1130460DF93C82FD62F0E94B403813031F440E0CB
S11304706D2F8C2F0E943B0305C041E06D2F8C2F04
S11304800E943B03DF91CF91089587B1806487B9BF
S113049087B18F7787B987B18F7D87B986B1887F18
S11304A0866086B986B1806186B986B1877F86B950
S11304B086B1806886B980E00895883008F597B1E0
S11304C0907E892B87B986B1806486B980E090E0FC
S11304D0DC0103C00196A11DB11D349906C080350D
S11304E023EC9207A105B105A8F38035934CA1052F
S11304F0B10548F486B1806186B984B195B1089597
S11305008FEF9FEF08958FEF9FEF08951F920F9243
S11305100FB60F9211242F933F934F935F936F93D2
S11305207F938F939F93AF93BF93EF93FF9324B1E4
S113053085B1E0911101F0911201309731F090E012
S1130540982F8827822B9183808386B1877F86B9F1
S113055010920E01E0910F01F0911001309709F013
S11305600995FF91EF91BF91AF919F918F917F91E9
S11305706F915F914F913F912F910F900FBE0F900C
S11305801F901895683008F075C04130B9F5823471
S1130590A1F018F4813431F008958334C9F084341F
S11305A011F108952AB381E090E002C0880F991FE9
S11305B06A95E2F7822B8ABB089527B381E090E025
S11305C002C0880F991F6A95E2F7822B87BB0895B2
S11305D024B381E090E002C0880F991F6A95E2F786
S11305E0822B84BB089521B381E090E002C0880F80
S11305F0991F6A95E2F7822B81BB089541113AC095
S11306008234A9F018F4813431F008958334D9F098
S1130610843429F108952AB381E090E002C0880F60
S1130620991F6A95E2F7809582238ABB089527B3C0
S113063081E090E002C0880F991F6A95E2F78095E7
S1130640822387BB089524B381E090E002C0880F21
S1130650991F6A95E2F78095822384BB089521B39C
S113066081E090E002C0880F991F6A95E2F78095B7
S1130670822381BB0895683008F075C04130B9F514
S11306808234A1F018F4813431F008958334C9F030
S1130690843411F108952BB381E090E002C0880FF7
S11306A0991F6A95E2F7822B8BBB089528B381E0EA
S11306B090E002C0880F991F6A95E2F7822B88BBED
S11306C0089525B381E090E002C0880F991F6A95D0
S11306D0E2F7822B85BB089522B381E090E002C04B
S11306E0880F991F6A95E2F7822B82BB0895411106
S11306F03AC08234A9F018F4813431F00895833477
S1130700D9F0843429F108952BB381E090E002C03C
S1130710880F991F6A95E2F7809582238BBB089511
S113072028B381E090E002C0880F991F6A95E2F730
S11307308095822388BB089525B381E090E002C0B0
S1130740880F991F6A95E2F78095822385BB0895E7
S113075022B381E090E002C0880F991F6A95E2F706
S11307608095822382BB0895683078F5823491F0B5
S113077018F4813431F02BC08334A9F08434E1F0CF
S113078026C089B390E002C0959587956A95E2F7F3
S11307908170089586B390E002C0959587956A9517
S11307A0E2F78170089583B390E002C09595879530
S11307B06A95E2F78170089580B390E002C0959540
S11307C087956A95E2F78170089580E0089580E046
S11307D00895CF93C62F8130A1F120F0823009F41F
S11307E05FC074C040E062E084E40E94C202C13091
S11307F069F028F0C23089F0C330B1F01BC085B76E
S11308008E7F85BF85B78D7F85BF14C085B7816016
S113081085BF85B78D7F85BF0DC085B78E7F85BFAA
S113082085B7826085BF06C085B7816085BF85B7FF
S1130830826085BF8AB780648ABF8BB780648BBFB0
S113084045C040E063E084E40E94C202C13069F024
S113085028F0C23089F0C330B1F01BC085B78B7F5C
S113086085BF85B7877F85BF14C085B7846085BF82
S113087085B7877F85BF0DC085B78B7F85BF85B75B
S1130880886085BF06C085B7846085BF85B78860EA
S113089085BF8AB780688ABF8BB780688BBF16C054
S11308A040E062E082E40E94C202C23021F484B7D4
S11308B08F7B84BF05C0C33019F484B7806484BFC0
S11308C08AB780628ABF8BB780628BBFCF9108954D
S11308D00097A1F0613049F018F0623059F00895A2
S11308E090931401809313010895909316018093BB
S11308F015010895909318018093170108951F928C
S11309000F920FB60F9211242F933F934F935F933F
S11309106F937F938F939F93AF93BF93EF93FF93C3
S1130920E0911301F0911401309709F00995FF91BA
S1130930EF91BF91AF919F918F917F916F915F9153
S11309404F913F912F910F900FBE0F901F901895CC
S11309501F920F920FB60F9211242F933F934F9330
S11309605F936F937F938F939F93AF93BF93EF9313
S1130970FF938BB78F778BBF8BB78F7D8BBF8FB771
S113098080688FBFE0911501F0911601309709F04E
S113099009958FB78F778FBF8BB780688BBF8BB765
S11309A080628BBFFF91EF91BF91AF919F918F9127
S11309B07F916F915F914F913F912F910F900FBE57
S11309C00F901F9018951F920F920FB60F9211243B
S11309D02F933F934F935F936F937F938F939F9343
S11309E0AF93BF93EF93FF938BB78F7D8BBF8FB77D
S11309F080688FBFE0911701F0911801309709F0DA
S1130A0009958FB78F778FBF8BB780628BBFFF91AC
S1130A10EF91BF91AF919F918F917F916F915F9172
S1130A204F913F912F910F900FBE0F901F901895EB
S1130A308FB780688FBF089597B3986097BB811173
S1130A4007C083B7886083BF83B7806483BF06C051
S1130A5083B7877F83BF83B7806483BF83B7806294
S1130A6083BF83B78F7E83BF1CBE83B7887F6770C5
S1130A70682B63BF0895853608F084E69FEF899F4D
S1130A80900111243695279536952795ABE7B4E167
S1130A900E94CA09969587958CBF089591B3906872
S1130AA091BB811107C085B5886085BD85B580641B
S1130AB085BD06C085B5877F85BD85B5806485BD48
S1130AC085B5806285BD85B58F7E85BD13BC85B532
S1130AD0887F6770682B65BD0895853608F084E6C5
S1130AE09FEF899F90011124369527953695279578
S1130AF0ABE7B4E10E94CA099695879583BD089532
S1130B0081B3806281BB8FB580688FBD8FB58F7BC9
S1130B108FBD089581B3806181BB8FB580628FBD25
S1130B208FB58F7E8FBD0895CF92DF92EF92FF92A3
S1130B30CF93DF936B017C01D42F672B682B692B38
S1130B4021F4C12CD12C7601C394C0E046C0D1114C
S1130B501EC0EC2FF0E0EE0FFF1FE659FF4FA081FF
S1130B60B181A70196010E94D9099B01AC0160E003
S1130B7072E18AE790E00E948909DA01C901232B16
S1130B80242B252BF1F00197A109B1091AC0EC2FF0
S1130B90F0E0EE0FFF1FE659FF4FA081B181A701DE
S1130BA096010E94D9099B01AC01220F331F441FF7
S1130BB0551F60E072E18AE790E00E948909DA013A
S1130BC0C901009721E0A207B10530F4EC2FF0E051
S1130BD0EC58FF4FC08109C0CF5FC53008F4B7CFD0
S1130BE08FEF9FEFA0E0B0E0C5E00097A105B1054D
S1130BF021F481E090E0A0E0B0E090936100809364
S1130C006000DD2319F0D13071F01AC08EB5806117
S1130C108EBD8EB588608EBD8FB582608FBD8FB559
S1130C208E7F8FBD19C08EB580618EBD8EB5877FD6
S1130C308EBD8FB582608FBD8FB58E7F8FBD0CC08A
S1130C408EB580618EBD8EB5877F8EBD8FB58D7F4D
S1130C508FBD8FB58E7F8FBD8091610087BD8091E0
S1130C60600086BD1BBC1ABC19BC18BC0E94800560
S1130C700E948A058EB5982F987F8C2F8770892BB8
S1130C808EBDDF91CF91FF90EF90DF90CF900895CC
S1130C9020916000309161002817390708F09C0109
S1130CA03BBD2ABD0895853608F084E6A091600016
S1130CB0B0916100282F30E00E94CA0924E630E098
S1130CC040E050E00E948909C9010E944806089545
S1130CD020916000309161002817390708F09C01C9
S1130CE039BD28BD0895853608F084E6A0916000DA
S1130CF0B0916100282F30E00E94CA0924E630E058
S1130D0040E050E00E948909C9010E9468060895E4
S1130D10882319F08130B9F039C083B7877F83BF46
S1130D2083B78F7B83BF83B78F7D83BF83B78F7E6A
S1130D3083BF12BE88B7816088BF83B7887F67701E
S1130D40682B63BF08958EB58F7E8EBD8EB5877F69
S1130D508EBD8FB58D7F8FBD8FB58E7F8FBD8FB5C7
S1130D608F778FBD8FB58F7B8FBD8FB58F7D8FBDF7
S1130D708FB58F7E8FBD1DBC1CBC88B7846088BFB7
S1130D808EB5887F6770682B6EBD089585B5877FA3
S1130D9085BD85B58F7B85BD85B58F7D85BD85B5C5
S1130DA08F7E85BD14BC88B7806488BF85B5887F75
S1130DB06770682B65BD0895882319F0813029F088
S1130DC002C020E003C026E001C022E088B790E022
S1130DD0022E02C0959587950A94E2F780FF0CC015
S1130DE038B781E090E002C0880F991F2A95E2F796
S1130DF0832B88BF81E0089580E00895CF93DF932B
S1130E00C42FD22FDC01CB01880F991FAA1FBB1F4F
S1130E10880F991FAA1FBB1F9C01AD01220F331F0E
S1130E20441F551F220F331F441F551F60E072E1FA
S1130E308AE790E00E948909215031098BB18D7FA6
S1130E408BB98AB188608AB98AB180618AB9C6309F
S1130E5051F0C73021F0C53021F480E805C084E8A2
S1130E6003C086E801C082E8D23011F4886001C072
S1130E70877F80BD832F8F7780BD29B9DF91CF9184
S1130E80089580E090E0DC0103C00196A11DB11D2E
S1130E905F9906C0803523EC9207A105B105A8F33C
S1130EA08035934CA105B10510F48CB1089580E010
S1130EB0089562E084E40E94B40380936900089575
S1130EC082E00E94DC06813059F4809119018F5F21
S1130ED080931901863030F01092190181E0089551
S1130EE080E0089580E008950E94450221E048E0F2
S1130EF060E875E280E090E00E94FE0664E082E42F
S1130F000E94210263E084E40E94490067E084E4D3
S1130F100E94490065E084E40E94490066E084E49C
S1130F200E9449000895CF9363E084E40E9458002E
S1130F30882391F066E084E40E945800C82F813031
S1130F4041F480912B01811104C064E082E40E9489
S1130F502F02C0932B0102C010922B0167E084E49E
S1130F600E945800882399F00E9441078F3411F0A1
S1130F708F3629F464E082E40E94190208C08334A5
S1130F8011F0833621F464E082E40E941D0281E0C2
S1130F900E945D0290932D0180932C0165E084E40E
S1130FA00E945800882379F180912C0190912D01A1
S1130FB08F3F2FEF920749F18130924010F4C1E046
S1130FC001C0C0E080912901811105C0C0932A01AC
S1130FD081E080932901C13049F480912A01811173
S1130FE005C064E082E40E9419020AC0C11108C06D
S1130FF080912A01813021F464E082E40E941D0280
S1131000C0932A0102C010922901CF91089560E093
S113101082E40E94210261E082E40E94210260E0F5
S113102082E40E941D0261E082E40E941D0262E0EB
S113103084E40E94B4038093690061E080E00E942C
S1131040E90360E089E597E00E9468040E941805BE
S1131050089580916900811109C060E082E40E94D2
S1131060190261E082E40E941D02089561E082E4B5
S11310700E94190260E082E40E941D02089566E065
S113108083E40E944900089566E083E40E945800C6
S113109080932701482F50E020916800022E000C15
S11310A0330B4217530711F0809328018093680093
S11310B008950E94450280E291E00E945E0083E66A
S11310C090E00E945E00089580E00E945D028F3FE0
S11310D02FEF920709F458C09C01A8E8B3E10E94DD
S11310E0CA0926EF37E240E050E00E9489093093B4
S11310F0260120932501809125019091260188974E
S113110058F064E680E291E00E94940064E683E68D
S113111090E00E9494000895809125019091260109
S11311204E9788F08091250190912601889758F474
S11311306BE480E291E00E9494006BE483E690E02B
S11311400E9494000895809125019091260144976E
S113115088F080912501909126014E9758F462E31E
S113116080E291E00E94940062E383E690E00E94B2
S11311709400089560E080E291E00E94940060E0B1
S113118083E690E00E94940008950E94A20167E023
S113119082E00E948806089510921F018091250123
S11311A090912601A0E0B0E080931B0190931C0174
S11311B0A0931D01B0931E0160E080E00E94F30142
S11311C089E790E00E94130160911B0170911C015A
S11311D080911D0190911E010E94360188E890E0E3
S11311E00E94130180911F018F5F80931F0191E082
S11311F020912C0130912D012130324008F490E0EF
S11312009093620060E00E94F30180916200882361
S113121029F08FE890E00E94130104C084EA90E072
S11312200E94130180911F018F5F80931F0160E072
S11312300E94F301809128018823D9F00E9460075D
S1131240813091F480911A01813039F488EB90E077
S11312500E94130110921A0107C08EEC90E00E94C4
S1131260130181E080931A0180911F018F5F8093A5
S11312701F0160E080911F010E94F30180916900C9
S1131280882329F084EE90E00E94130104C089EFC2
S113129090E00E94130180912801882321F080911D
S11312A0690081110CC080911F018F5F80931F0121
S11312B060E00E94F30189EF90E00E9413018091A5
S11312C02801811110C08091690081110CC08091A6
S11312D01F018F5F80931F0160E00E94F30189EF7B
S11312E090E00E94130108950E9474070E943F0831
S11312F00E9407080E9459080E94C5080E9493078B
S11313000E9444080E9429080E9464080E94CC0894
S1131310F5CFA1E21A2EAA1BBB1BFD010DC0AA1F0B
S1131320BB1FEE1FFF1FA217B307E407F50720F04A
S1131330A21BB30BE40BF50B661F771F881F991FC5
S11313401A9469F760957095809590959B01AC010E
S1131350BD01CF010895052E97FB1EF400940E9451
S1131360C20957FD07D00E94890907FC03D04EF437
S11313700C94C20950954095309521953F4F4F4F9D
S11313805F4F089590958095709561957F4F8F4F2D
S11313909F4F0895A29FB001B39FC001A39F700DFA
S11313A0811D1124911DB29F700D811D1124911D69
S11313B008950E94CA09A59F900DB49F900DA49F03
S10F13C0800D911D11240895F894FFCFB6
S11313CCFFFF0102E8030000FF01010008004000D8
S11313DC0001000401020304052054656D7065725C
S11313EC61747572653A200020432020202000206F
S11313FC202020202020497473204461792020204F
S113140C20202000202020202020497473204E69A5
S113141C6768742020202000202027272049542787
S113142C53205241494E494E472027272000202063
S113143C2021212054414B45204341524520212158
S113144C202020002020202021212120414C415209
S113145C4D2021212120202000202020202020206C
S111146C2020202020202020202020200000EE
S9030000FC
