:100000000C942A000C943F000C943F000C943F0089
:100010000C943F000C943F000C943F000C943F0064
:100020000C943F000C943F000C943F000C943F0054
:100030000C943F000C943F000C943F000C943F0044
:100040000C943F000C943F000C943F000C943F0034
:100050000C943F0011241FBECFE5D8E0DEBFCDBF1A
:1000600010E0A0E6B0E0EEE8F4E002C005900D92EA
:10007000A237B107D9F70E943E020C9445020C94B6
:10008000000041E060E080E00E94270141E061E083
:1000900080E00E94270141E062E080E00E942701A9
:1000A00041E063E080E00E94270141E064E080E0FD
:1000B0000E94270141E065E080E00E94270141E0C5
:1000C00066E080E00E9427010895809160008730FB
:1000D0001CF48F5F80936000089580916000181673
:1000E0001CF4815080936000089541E060E081E05D
:1000F0000E94270140E062E083E00E94270140E087
:1001000063E083E00E94270108950F931F93CF932C
:10011000DF9362E083E00E940D02C82F63E083E07A
:100120000E940D02C130A9F48FE59AEE0197F1F714
:1001300000C0000062E083E00E940D028130F9F40B
:100140000E94650062E083E00E940D028130D1F3DD
:1001500016C08130A1F48FE59AEE0197F1F700C047
:10016000000063E083E00E940D02813041F40E94B0
:100170006D0063E083E00E940D028130D1F3E091D5
:100180006000EE0FFF0BEF59FF4F00811181083B1C
:100190009BE0190761F440E060E081E00E949A0171
:1001A0008FE19EE40197F1F700C000004BC00115FC
:1001B000110561F441E060E081E00E949A018FE165
:1001C0009EE40197F1F700C000003CC041E060E010
:1001D00081E00E949A01C0E0D0E013C08FE19EE46C
:1001E0000197F1F700C0000062E083E00E940D0279
:1001F000813051F063E083E00E940D02813021F0F4
:100200002A96C017D10750F340E060E081E00E94D9
:100210009A01C0E0D0E013C08FE19EE40197F1F7AE
:1002200000C0000062E083E00E940D02813051F0C6
:1002300063E083E00E940D02813021F02A96C0170E
:10024000D10750F3DF91CF911F910F91089568303E
:1002500008F06FC04130A1F5813089F028F082307C
:10026000C9F0833011F108952AB381E090E002C013
:10027000880F991F6A95E2F7822B8ABB089527B3EE
:1002800081E090E002C0880F991F6A95E2F7822B07
:1002900087BB089524B381E090E002C0880F991FC6
:1002A0006A95E2F7822B84BB089521B381E090E048
:1002B00002C0880F991F6A95E2F7822B81BB0895CF
:1002C000411137C0813091F028F08230D9F083306D
:1002D00029F108952AB381E090E002C0880F991FA8
:1002E0006A95E2F7809582238ABB089527B381E05F
:1002F00090E002C0880F991F6A95E2F780958223EB
:1003000087BB089524B381E090E002C0880F991F55
:100310006A95E2F78095822384BB089521B381E03A
:1003200090E002C0880F991F6A95E2F780958223BA
:1003300081BB0895683008F06FC04130A1F581306D
:1003400089F028F08230C9F0833011F108952BB381
:1003500081E090E002C0880F991F6A95E2F7822B36
:100360008BBB089528B381E090E002C0880F991FED
:100370006A95E2F7822B88BB089525B381E090E06F
:1003800002C0880F991F6A95E2F7822B85BB0895FA
:1003900022B381E090E002C0880F991F6A95E2F7CE
:1003A000822B82BB0895411137C0813091F028F033
:1003B0008230D9F0833029F108952BB381E090E0A9
:1003C00002C0880F991F6A95E2F7809582238BBB44
:1003D000089528B381E090E002C0880F991F6A95C4
:1003E000E2F78095822388BB089525B381E090E0F1
:1003F00002C0880F991F6A95E2F78095822385BB1A
:10040000089522B381E090E002C0880F991F6A9599
:10041000E2F78095822382BB0895813081F028F035
:100420008230B9F08330F9F027C089B390E002C080
:10043000959587956A95E2F7982F91701DC086B3C0
:1004400090E002C0959587956A95E2F7982F917094
:1004500013C083B390E002C0959587956A95E2F743
:10046000982F917009C080B390E002C09595879550
:100470006A95E2F7982F9170892F08950E944100A4
:0E0480000E9475000E948500FDCFF894FFCF0A
:10048E0002B80BD007E803EE02F401FA0064000094
:02049E0000005C
:00000001FF
