:100000000C942A000C94FC010C9423020C944A02D8
:100010000C9447000C9447000C9447000C94470044
:100020000C9447000C9447000C9447000C94470034
:100030000C9447000C9447000C9447000C94470024
:100040000C9447000C9447000C9447000C94470014
:100050000C94470011241FBECFE5D8E0DEBFCDBF12
:1000600010E0A0E6B0E0E8EFF5E002C005900D92E8
:10007000A036B107D9F720E0A0E6B0E001C01D929C
:10008000A636B207E1F70E9498020C94FA020C948B
:10009000000087B1806487B987B18F7787B987B14E
:1000A0008F7D87B986B1816086B986B1826086B955
:1000B00086B18B7F86B986B18F7786B986B1877F07
:1000C00086B986B1806186B986B1806886B908959F
:1000D00097B1907E97B997B1892B87B9089586B16A
:1000E000806486B908950E946F00349BFECF86B16C
:1000F000806186B984B195B10895683008F06FC009
:100100004130A1F5813089F028F08230C9F0833088
:1001100011F108952AB381E090E002C0880F991F81
:100120006A95E2F7822B8ABB089527B381E090E0BD
:1001300002C0880F991F6A95E2F7822B87BB08954A
:1001400024B381E090E002C0880F991F6A95E2F71E
:10015000822B84BB089521B381E090E002C0880F18
:10016000991F6A95E2F7822B81BB0895411137C030
:10017000813091F028F08230D9F0833029F1089550
:100180002AB381E090E002C0880F991F6A95E2F7D8
:10019000809582238ABB089527B381E090E002C056
:1001A000880F991F6A95E2F78095822387BB08958F
:1001B00024B381E090E002C0880F991F6A95E2F7AE
:1001C0008095822384BB089521B381E090E002C032
:1001D000880F991F6A95E2F78095822381BB089565
:1001E000683008F06FC04130A1F5813089F028F007
:1001F0008230C9F0833011F108952BB381E090E093
:1002000002C0880F991F6A95E2F7822B8BBB089575
:1002100028B381E090E002C0880F991F6A95E2F749
:10022000822B88BB089525B381E090E002C0880F3F
:10023000991F6A95E2F7822B85BB089522B381E06E
:1002400090E002C0880F991F6A95E2F7822B82BB6B
:100250000895411137C0813091F028F08230D9F0F3
:10026000833029F108952BB381E090E002C0880F1C
:10027000991F6A95E2F7809582238BBB089528B376
:1002800081E090E002C0880F991F6A95E2F780959F
:10029000822388BB089525B381E090E002C0880FD7
:1002A000991F6A95E2F78095822385BB089522B352
:1002B00081E090E002C0880F991F6A95E2F780956F
:1002C000822382BB0895813081F028F08230B9F01A
:1002D0008330F9F027C089B390E002C095958795E7
:1002E0006A95E2F7982F91701DC086B390E002C026
:1002F000959587956A95E2F7982F917013C083B30F
:1003000090E002C0959587956A95E2F7982F9170D5
:1003100009C080B390E002C0959587956A95E2F791
:10032000982F9170892F0895CF93C62F8130F1F0C7
:1003300018F08230A9F147C040E062E083E00E94FB
:100340007D00C11107C085B78E7F85BF85B78260EC
:1003500085BF08C0C13031F485B7816085BF85B7DE
:10036000826085BF8BB780648BBF2DC040E063E0A7
:1003700083E00E947D00C11107C085B78B7F85BFD8
:1003800085B7886085BF08C0C13031F485B7846007
:1003900085BF85B7886085BF8BB780688BBF13C06A
:1003A00040E062E081E00E947D00C11104C084B79A
:1003B0008F7B84BF05C0C13019F484B7806484BFCB
:1003C0008BB780628BBFCF9108950097A1F0613009
:1003D00049F018F0623059F00895909361008093CD
:1003E0006000089590936300809362000895909355
:1003F00065008093640008951F920F920FB60F92CC
:1004000011242F933F934F935F936F937F938F9319
:100410009F93AF93BF93EF93FF93E0916000F091B0
:1004200061000995FF91EF91BF91AF919F918F91DD
:100430007F916F915F914F913F912F910F900FBEE0
:100440000F901F9018951F920F920FB60F921124C4
:100450002F933F934F935F936F937F938F939F93CC
:10046000AF93BF93EF93FF93E0916200F09163002D
:100470000995FF91EF91BF91AF919F918F917F91DE
:100480006F915F914F913F912F910F900FBE0F9001
:100490001F9018951F920F920FB60F9211242F9351
:1004A0003F934F935F936F937F938F939F93AF93FC
:1004B000BF93EF93FF93E0916400F091650009957D
:1004C000FF91EF91BF91AF919F918F917F916F912C
:1004D0005F914F913F912F910F900FBE0F901F9002
:1004E00018958FB780688FBF089541E00E947D0006
:1004F000089541E00E94F000089540E00E94F0005D
:10050000089561E081E00E947D0262E081E00E9446
:10051000790262E083E00E9463018130D1F361E0FF
:1005200081E00E94790262E081E00E947D020895EC
:1005300040E060E080E00E947D0040E062E083E017
:100540000E947D0060E081E00E94750261E081E030
:100550000E94750262E081E00E9475020E944900DB
:1005600080E00E94680060E081E892E00E94E5017E
:1005700061E080E00E9494010E94710261E081E0EC
:100580000E94790262E081E00E947D020E94730075
:100590009C01A8E8B3E10E94EB02DC01CB01072E2D
:1005A0007AE0B695A795979587957A95D1F7702DAE
:1005B000843C994028F460E081E00E94790204C004
:1005C00060E081E00E947D028FE19EE40197F1F7F7
:1005D00000C00000DBCFA29FB001B39FC001A39F6A
:1005E000700D811D1124911DB29F700D811D11246C
:0805F000911D0895F894FFCF5E
:00000001FF
