:100000000C942A000C9460010C9487010C94AE01AE
:100010000C9447000C9447000C9447000C94470044
:100020000C9447000C9447000C9447000C94470034
:100030000C9447000C9447000C9447000C94470024
:100040000C9447000C9447000C9447000C94470014
:100050000C94470011241FBECFE5D8E0DEBFCDBF12
:1000600010E0A0E6B0E0E6EEF4E002C005900D92EC
:10007000A036B107D9F720E0A0E6B0E001C01D929C
:10008000A636B207E1F70E94E1010C9471020C94CC
:100090000000683008F06FC04130A1F5813089F070
:1000A00028F08230C9F0833011F108952AB381E03D
:1000B00090E002C0880F991F6A95E2F7822B8ABBF5
:1000C000089527B381E090E002C0880F991F6A95D8
:1000D000E2F7822B87BB089524B381E090E002C051
:1000E000880F991F6A95E2F7822B84BB089521B38C
:1000F00081E090E002C0880F991F6A95E2F7822B99
:1001000081BB0895411137C0813091F028F08230D1
:10011000D9F0833029F108952AB381E090E002C03C
:10012000880F991F6A95E2F7809582238ABB08950C
:1001300027B381E090E002C0880F991F6A95E2F72B
:100140008095822387BB089524B381E090E002C0AC
:10015000880F991F6A95E2F78095822384BB0895E2
:1001600021B381E090E002C0880F991F6A95E2F701
:100170008095822381BB0895683008F06FC04130BC
:10018000A1F5813089F028F08230C9F0833011F177
:1001900008952BB381E090E002C0880F991F6A9503
:1001A000E2F7822B8BBB089528B381E090E002C078
:1001B000880F991F6A95E2F7822B88BB089525B3B3
:1001C00081E090E002C0880F991F6A95E2F7822BC8
:1001D00085BB089522B381E090E002C0880F991F8B
:1001E0006A95E2F7822B82BB0895411137C08130B6
:1001F00091F028F08230D9F0833029F108952BB3A3
:1002000081E090E002C0880F991F6A95E2F780951F
:1002100082238BBB089528B381E090E002C0880F51
:10022000991F6A95E2F78095822388BB089525B3CC
:1002300081E090E002C0880F991F6A95E2F78095EF
:10024000822385BB089522B381E090E002C0880F2D
:10025000991F6A95E2F78095822382BB08958130C9
:1002600081F028F08230B9F08330F9F027C089B3EB
:1002700090E002C0959587956A95E2F7982F917066
:100280001DC086B390E002C0959587956A95E2F708
:10029000982F917013C083B390E002C09595879515
:1002A0006A95E2F7982F917009C080B390E002C080
:1002B000959587956A95E2F7982F9170892F089503
:1002C0001F920F920FB60F9211242F933F934F93CB
:1002D0005F936F937F938F939F93AF93BF93EF93AE
:1002E000FF93E0916000F09161000995FF91EF911B
:1002F000BF91AF919F918F917F916F915F914F913E
:100300003F912F910F900FBE0F901F9018951F9245
:100310000F920FB60F9211242F933F934F935F9339
:100320006F937F938F939F93AF93BF93EF93FF93BD
:10033000E0916200F09163000995FF91EF91BF9108
:10034000AF919F918F917F916F915F914F913F916D
:100350002F910F900FBE0F901F9018951F920F9224
:100360000FB60F9211242F933F934F935F936F9388
:100370007F938F939F93AF93BF93EF93FF93E091FE
:100380006400F09165000995FF91EF91BF91AF91E5
:100390009F918F917F916F915F914F913F912F919D
:1003A0000F900FBE0F901F90189541E00E944900DA
:1003B000089541E00E94BC00089540E00E94BC0006
:1003C000089560E081E00E94D50162E083E00E9430
:1003D000160280E895E20E941A0262E083E00E9421
:1003E0002F018130D1F78FE59AEE0197F1F700C028
:1003F000000062E083E00E942F01813071F78CE4FD
:100400000E9444020E9448028C3429F460E081E09A
:100410000E94D90104C060E081E00E94DD0162E039
:1004200083E00E942F018130D1F3D7CF40E00E94BA
:1004300049000895A0E0B0E0880F991FAA1FBB1FD4
:10044000880F991FAA1FBB1F9C01AD01220F331FEC
:10045000441F551F220F331F441F551F60E074E2D5
:1004600084EF90E00E944F02215031098BB18D7FC3
:100470008BB930BD29B98AB188608AB98AB18061E7
:100480008AB986E880BD08955D9BFECF8CB908953A
:100490005F9BFECF8BB180688BB98CB10895A1E2D0
:1004A0001A2EAA1BBB1BFD010DC0AA1FBB1FEE1FEE
:1004B000FF1FA217B307E407F50720F0A21BB30B39
:1004C000E40BF50B661F771F881F991F1A9469F7B5
:1004D00060957095809590959B01AC01BD01CF0111
:0604E0000895F894FFCF1F
:00000001FF
